:020000021000EC
:10000000E03F082095010100FB000100E100010034
:10001000090101001901010029010100000000008F
:10002000000000000000000000000000A10A010024
:100030003901010000000000010B0100590101001D
:100040007D0601007D0601007D0601007D060100A0
:100050007D0601007D0601007D0601007D06010090
:100060007D0601007D0601007D0601007D06010080
:100070007D0601007D0601007D0601007D06010070
:100080007D0601007D0601007D0601007D06010060
:100090007D0601007D0601007D0601007D06010050
:1000A0007D0601007D0601007D0601007D06010040
:1000B0007D0601007D0601007D0601007D06010030
:1000C0007D0601007D0601007D060100C07C020066
:1000D00000C00720FC02000000C307202C05000020
:1000E00004207146084203D0EFF3098000F0E4BA1F
:1000F000EFF3088000F0E0BA704708B5014803F05C
:100100008BFBFEE7224C020008B5024803F084FB9B
:10011000FEE700BF2D4C020008B5024803F07CFB4F
:10012000FEE700BF384C020008B5024803F074FB3C
:10013000FEE700BF434C020008B5024803F06CFB29
:10014000FEE700BF504C020008B5024803F064FB14
:10015000FEE700BF5E4C020008B501F059FE00F05A
:10016000F1FCBDE8084001F067BE0B4610B5401A2F
:100170005C1AA24203D9C45843F8044BF8E710BDF7
:100180000346002210B51C1AA14202D943F8042BE1
:10019000F9E710BD154800F033F8144800F033F8C3
:1001A000134C144DAC4209D3134DAC420ED254F84B
:1001B000080B54F8041CFFF7E3FFF6E794E803008C
:1001C0000C3454F8042CFFF7D0FFEBE70DF0E2FEFF
:1001D00000F030F80BF080FA09F07AFC4FF416408A
:1001E00000F08AFB054803F017FBFEE7E03F08201C
:1001F000CC000100D8000100E0000100724C0200B8
:1002000080F30988704780F30888704780F311886D
:100210007047FFFF014B1878704700BF0CC30720E1
:1002200003490B6803604B6843608B6883607047C9
:1002300000C3072030B585B002F0B8FC684602F074
:100240005DFC7C4C009B2360019B6360029BA36070
:1002500000F0A4FA00F0FCFA774BB0FBF3F03C2876
:10026000764B00F2A480292880F0AB80142800F29D
:10027000A5803A221A6008239822714900200B7643
:100280004B768B7681F820306E4B83F8052383F80C
:10029000062383F8072383F80823902283F80A2390
:1002A00083F80B2383F80C23702283F80E2383F842
:1002B0000F23582283F8122383F8132383F814237F
:1002C00083F81523782283F81923A02283F80023CA
:1002D00083F8012383F8022383F8032383F804239C
:1002E00083F8092383F80D2383F8102383F811235F
:1002F00083F8162383F8172383F8182383F81A2327
:1003000083F81B2383F81C2383F81E2383F81F2301
:1003100083F8202383F81D2383F8212383F82223E5
:10032000CB6823F4E0631B041B0C43F0BF6343F46E
:100330000033CB60FFF76AFF61B662B64FF4164038
:1003400000F0DAFA404809F041F9404809F044F970
:1003500000233F4C19462068022280680FF08AFB78
:10036000002320680222194640680FF083FB09F041
:100370004DF94FF08043374A304C5A6003221A70CF
:10038000AA221A7255221A72D4F88031324D13F013
:10039000010F1FD0314800F0F7FA01232B70D4F879
:1003A000803143F00103C4F8803105B030BD5028DE
:1003B0000AD964280BD945F23A025BE741F23A02C6
:1003C00058E742F23A0255E743F23A0252E744F262
:1003D0003A024FE7D4F880319B0709D5204800F056
:1003E000D3FA02232B70D4F8803143F00203DAE70A
:1003F000D4F8803113F0040319D01A4B9A6C1A4BBD
:100400009A4208D1052319482B7000F0BDFA00224A
:10041000144B9A64C9E7042315482B7000F0B4FA12
:10042000D4F8803143F00403C4F88031EFE72B7037
:10043000BBE700BF00C3072040420F0000C00F40D1
:1004400000ED00E000E100E0710901005909010040
:10045000E0C00720C0C62D000CC30720A84A020038
:10046000EB4A020000400240EFBEADDEC54A02008A
:10047000E24A020038B50D46044600F025FB094A61
:1004800001234DB1D2F8C400A3400343C2F8C430E5
:10049000BDE8384000F028BBD2F8C410A34021EAE0
:1004A0000303F3E700C00F402DE9F0414FEA400895
:1004B0000E4600F009FB4246032000210CF00CFB25
:1004C0000A4F4246D7E9004524EA000425EA01051F
:1004D00006F0030000210CF0FFFA20432943C7E98E
:1004E0000001BDE8F04100F0FFBA00BFA8C10F4015
:1004F000012110B50F4B104C0846236002F034FA6E
:100500004FF0FF3223689A614FF47A72DA61002269
:100510001A620A4A5A6240F209225A615A6942F042
:1005200040025A611822064B83F8022304221A6003
:1005300010BD00BF0080004018C3072060E3160014
:1005400000E100E0084B10B51B68084C9A68218850
:10055000986889B28242F9D80B46002242EA00022A
:100560001046194610BD00BF18C3072014C307204A
:1005700010B504468EB006A808F068FF0A9B069ADC
:1005800005930B9B074904930C9B204603930D9BFB
:100590000293099B0193089B0093079B0FF094FB28
:1005A0000EB010BD264B020010B5044C23681BB9D9
:1005B000012008F043FF2060206810BD10C3072011
:1005C00038B52B4C236825461A6812F0100F0ED050
:1005D00010221A60FFF7E8FF2368D96A07F02CFCA5
:1005E0002268936803F51C531033136238BD540717
:1005F00007D504221A60FFF7D7FFBDE8384007F09F
:1006000029BCD00707D501221A601A4A1388013382
:100610009BB2138038BD910715D502221A6001F0F4
:1006200027FB022809D008F0A9FE2A689368D1693F
:100630000B4403F57A73D36138BD2A68536923F0FC
:1006400008035361F1E712070ED50822AA211A60A8
:100650004FF080421172552111729A6802F5B7125B
:1006600002F558725A6238BD03480FF0A7F8FEE74A
:1006700018C3072014C30720054B020008B501F07A
:10068000C7FB094B094A1978094B1039C9B253F80D
:100690002130934203D1074803F0CDF8FEE7984795
:1006A000BDE8084001F0C8BB04ED00E049010100CD
:1006B00000C00720EB4B0200036888B0009343683A
:1006C000114A019383680293C368039303690493F7
:1006D0004369059383690693C36907930B4B9A6437
:1006E000069ADA64059A013A1A65079A5A654FF034
:1006F0008043AA221A7200221A70009B019B029B5F
:10070000039B049B08B07047EFBEADDE0040024083
:10071000AA22034BC3F88C205522C3F88C207047C3
:1007200000C00F402DE9F04F00240C6014601C60E5
:1007300040F2FF14DFF860A04FF4FA55002604FBE6
:10074000055B06F1010CBBFBFCF8124FA8F58625F2
:10075000A5F50E75BD421AD96646202EF1D1013C91
:10076000052CE9D10020BDE8F08FB9F5807F4D461A
:10077000F2D005F10109B8FBF9FED645F5D886455A
:100780000C6016601D60F0D10120BDE8F08F0325DC
:10079000EFE700BF38320400A086010030B5002426
:1007A0002A4985B0D1F8803004AD23F0020345F822
:1007B000044D01940294C1F88030FFF7A9FFD1F8ED
:1007C000803023F00103C1F88030FFF7A1FFC1F8AA
:1007D0000C41C1F88440FFF79BFF2B46C1F8044150
:1007E00002AA01A94BF68030FFF79CFF30B92B46D7
:1007F00002AA01A945F6C050FFF794FF019B1349D7
:1008000063F30F04029B63F317440023C1F80C3118
:10081000C1F88440FFF77CFF0123C1F88030FFF767
:1008200077FFD1F888305B01FBD5039BC1F8043119
:100830000323C1F88030FFF76BFF044AD2F88830F9
:1008400013F0407FFAD005B030BD00BF00C00F40AC
:10085000244BD3F88820C2F30162032AD3F80C2179
:1008600002F003022DD1012A16D0022A1ED0D3F89D
:1008700088101D48D3F88820D3F80431C1F30E0145
:1008800001FB0000C2F307420132B0FBF2F0DBB221
:100890000133B0FBF3F07047D3F888101348D3F856
:1008A0008820C1F30E01D3F80431E9E7D3F88800BA
:1008B000D3F88820C0F30E000130D3F804310004CF
:1008C000E0E7D3F80401012AC0B200F1010303D02C
:1008D000022A03D00648DCE70648DAE74FF4004076
:1008E000D7E700BF00C00F4000127A0000366E014B
:1008F00000093D00001BB70010B50446FFF7A8FF34
:100900002401B0FBF4F00CF035FA0022104B0CF08F
:10091000F5F80CF0A5FA012184B20320FFF7AAFD37
:1009200001210320FFF7C0FD0A4B1A6822F0F002F4
:100930001A601A6842F050021A608022A3F5003350
:100940001A73220A1A710322E4B21C701A7310BDC2
:100950000000E03F00C00240034A1368DB07FCD5FB
:10096000024B1878704700BF14C0004000C0004020
:10097000034B044A187013685B06FCD501207047CE
:1009800000C0004014C0004008B5411E11F8010F1E
:1009900020B90A20BDE80840FFF7EABFFFF7E8FFEB
:1009A000F4E730BF7047FFFF10B50C46094802F06E
:1009B00033FF204602F030FF074802F02DFF0748C2
:1009C00003F06FFC4FF08043AA221A7200221A70C3
:1009D00010BD00BFD14C0200FA4C0200C0C62D0071
:1009E00008B5064802F018FF054803F05AFC4FF01E
:1009F0008043AA221A7200221A7008BD9B4C020082
:100A0000C0C62D0010B5044600F0E4FD20460DF0F0
:100A100051FC044600F07EFE0CB9FFF7E1FF2046D2
:100A200010BD10B5044640B100F0D4FD20460DF0D5
:100A300049FCBDE8104000F06DBE10BD4FF0100342
:100A400083F31188BFF36F8FBFF34F8FFEE7FFFF74
:100A500006480068006880F3088862B661B6BFF394
:100A60004F8FBFF36F8F00DF00BF000008ED00E085
:100A70004FF0807340F8043C054B21F0010140F831
:100A8000081C40F80C3C40F8202C4038704700BF50
:100A90003D0A0100FFFFFFFFFFFFFFFFFFFFFFFF1A
:100AA000074B19680868B0E8F00F80F30988BFF3B6
:100AB0006F8F4FF0000080F311884EF00D0E7047DD
:100AC00028C307207047FFFF4FF0100383F31188FE
:100AD000BFF36F8FBFF34F8F024A13680133136068
:100AE000704700BF1CC30720034A1368013B136013
:100AF0000BB983F3118870471CC30720FFFFFFFF6A
:100B0000EFF30980BFF36F8F0D4B1A6820E9F00FE8
:100B100010602DE908404FF0100080F3118800F0BC
:100B2000A9FE4FF0000080F31188BDE80840196865
:100B30000868B0E8F00F80F30988BFF36F8F704743
:100B400028C3072008B54FF0100383F31188BFF3C3
:100B50006F8FBFF34F8F00F057FD18B14FF08052E9
:100B6000024B1A60002383F3118808BD04ED00E0F6
:100B70004BF67F32024B1A60072243F8042C704771
:100B800014E000E008B5094B1A6842F478021A60D4
:100B90001A6842F078421A60FFF7EAFF0022044B1D
:100BA0001A60FFF755FFFFF749FF00BF20ED00E097
:100BB0001CC3072008B5FFF7C5FC024BC3E90001C1
:100BC00008BD00BF20C3072008B5FFF7BBFC024BE0
:100BD0001B68C01A08BD00BF20C3072008B5FFF777
:100BE000B1FC024BC3E9000108BD00BF20C30720D0
:100BF00000F1080343604FF0FF32C360036100233C
:100C000082600360704700230361704743689A68FD
:100C10004B608A609A68516099600368086101338B
:100C2000036070470A6830B5531C0AD103695A68DB
:100C30004A6091608B60596003680861013303600A
:100C400030BD00F108035C682568AA42EFD3234653
:100C5000F9E74168826803698A608268516059686F
:100C6000884208BF5A600022026118680138186083
:100C7000704770B51546026C0446866B42B905682C
:100C80009DB9406801F04CF865600136A66370BDFF
:100C90006DB980680DF04DFBA368226C1344626847
:100CA000A360934201D32368A3600020EDE7C068EE
:100CB0000DF03FFB236CE2685B4221681A448A42D4
:100CC000E2603EBF62689B18E360022DEDD10EB179
:100CD000013EEAE73046D8E773B5856C0A46EB6B10
:100CE000A96B019099421AD201A9284695F845406E
:100CF000FFF7BFFF64B2631C06460BD16B6A33B1CA
:100D000005F1240000F07AFE002818BF01263046C5
:100D100002B070BD013464B285F84540F7E70026A3
:100D2000F5E703461A6C10B4084662B1D9685C68EE
:100D30001144A142D96028BF196810BC28BFD960EE
:100D4000D9680DF0F6BA10BC704770B50446FFF7CD
:100D5000BBFE94F8455004F124066DB2002D14DC5E
:100D6000FF2384F84530FFF7BFFEFFF7ADFE94F890
:100D7000445004F110066DB2002D19DCFF2384F8F5
:100D80004430BDE87040FFF7AFBEA36C4BB100210B
:100D90002046FFF7A1FF08B100F09AFE013D6DB2B9
:100DA000DCE7636A002BDBD0304600F027FEF2E779
:100DB0002369002BE2D0304600F020FE08B100F09D
:100DC00087FE013D6DB2D7E738B504460D46FFF703
:100DD0007BFE206CE36B22684343D1181B1A13443B
:100DE0006160E3600021FF23A163A26084F84430C6
:100DF00084F8453095B9236963B104F1100000F01F
:100E0000FDFD38B14FF08052094B1A60BFF34F8F90
:100E1000BFF36F8FFFF768FE012038BD04F11000AB
:100E2000FFF7E6FE04F12400FFF7E2FEF2E700BF61
:100E300004ED00E070B5064648434C300D46FFF720
:100E4000E1FD044648B155B92060E66325640121FF
:100E50002046FFF7B9FF0023A364204670BD00F1D0
:100E60004C030360F1E710B502220C460021FFF7A6
:100E7000E1FF00B1846310BD2DE9FF470027044660
:100E800089461E46B846DFF8F0A00192FFF71CFE27
:100E9000A26BE36B9A4201D3022E21D1324649461E
:100EA0002046FFF7E6FEA36C93B131462046FFF7DC
:100EB00013FF38B14FF080522F4B1A60BFF34F8FA2
:100EC000BFF36F8FFFF710FE012004B0BDE8F0877D
:100ED000636A002BEDD004F1240000F08FFDE8E7F9
:100EE000019D1DB9FFF700FE0020EEE717B902A82B
:100EF00000F0BCFDFFF7F8FD00F06CFBFFF7E4FD30
:100F000094F84430FF2B08BF84F8448094F84530AF
:100F1000FF2B08BF84F84580FFF7E6FD01A902A872
:100F200000F0B0FD10BBFFF7CFFDA76BE56BFFF73F
:100F3000DBFDAF4214D1019904F1100000F04EFD29
:100F40002046FFF702FF00F0E5FB38B94FF0805371
:100F5000CAF80030BFF34F8FBFF36F8F012795E7BB
:100F60002046FFF7F2FE00F0D5FBF7E72046FFF73B
:100F7000ECFE00F0CFFBB7E704ED00E010B5024651
:100F800000210120FFF756FF044638B100234360DB
:100F90000360C3601A461946FFF76EFF204610BD76
:100FA0002DE9F041044690461F46EFF311864FF0BD
:100FB000100383F31188BFF36F8FBFF34F8F826BE2
:100FC000C36B9A4201D3022F28D194F845503A4678
:100FD0006DB22046FFF74DFE6B1C1AD1A36C83B196
:100FE00039462046FFF778FE08B9012005E0B8F140
:100FF000000FFAD00120C8F8000086F31188BDE880
:10100000F081636A002BF0D004F1240000F0F6FCBC
:10101000EAE701356DB284F84550E6E70020ECE7D9
:1010200038B50D46EFF311844FF0100282F31188AA
:10103000BFF36F8FBFF34F8F816BC26B914221D291
:1010400090F84520013152B28163511C15D1826C58
:1010500062B10021FFF740FE08B9012003E0002D36
:10106000FBD00120286084F3118838BD426A002A31
:10107000F3D0243000F0C2FCEEE7013252B280F827
:101080004520EAE70020EEE72DE9FF474FF0000A90
:1010900004460F4698465646DFF81C910192FFF72A
:1010A00013FDA56B55B339462046E668FFF739FEB8
:1010B000B8F1000F1BD12368013DA56313B900F0FF
:1010C00067FE6060236963B104F1100000F096FCD4
:1010D00038B14FF08052384B1A60BFF34F8FBFF3D7
:1010E0006F8FFFF701FD012004B0BDE8F087636A50
:1010F000E660002BF5D004F12400E7E7019D1DB95F
:10110000FFF7F2FC2846EFE7BAF1000F02D102A880
:1011100000F0ACFCFFF7E8FC00F05CFAFFF7D4FC51
:1011200094F84430FF2B08BF84F8446094F84530AD
:10113000FF2B08BF84F84560FFF7D6FC01A902A881
:1011400000F0A0FC50BBFFF7BFFCA56BFFF7CCFC89
:10115000F5B9236833B9FFF7B7FC606800F098FD74
:10116000FFF7C2FC019904F1240000F037FC20468F
:10117000FFF7EBFD00F0CEFA38B94FF08053C9F815
:101180000030BFF34F8FBFF36F8F4FF0010A86E738
:101190002046FFF7DAFD00F0BDFAF6E72046FFF73C
:1011A000D4FD00F0B7FAFFF78FFCA56BFFF79CFCAE
:1011B000002DEAD1A6E700BF04ED00E02DE9F041E3
:1011C00007469046EFF311864FF0100383F3118822
:1011D000BFF36F8FBFF34F8F846B0CB390F8445005
:1011E000013C6DB2FFF79DFD6B1CBC6313D13B69E5
:1011F0000BB901200BE007F1100000F0FFFB002805
:10120000F7D0B8F1000FF4D00120C8F8000086F341
:101210001188BDE8F08101356DB287F84450E8E7E8
:101220002046F4E710B50446FFF74EFCA46BFFF729
:101230005BFC204610BD806B7047002313B502ACE9
:1012400044F8043D0A462146FFF71EFF019802B00C
:1012500010BD30B50025436800F108015B688B4282
:10126000436004BFC36843604368DC685B689942BD
:1012700008BFC368DA689442D564F7D1436030BDD3
:101280004FF0805608B5064C064D2368012B04D953
:101290002E60BFF34F8FBFF36F8FFFF782FBF4E732
:1012A00034C3072004ED00E0064A13681968064BB2
:1012B00019B94FF0FF321A6070471268D268D268CD
:1012C0005268F8E72CC3072040C40720F8B51B4B31
:1012D0001B4E1D68044630680F460430FFF7B9FC0A
:1012E000334640B901203168164EC96A32688840D9
:1012F00022EA00023260621C07D137B11968124835
:101300000431BDE8F840FFF781BC2C441A68A542BF
:10131000546007D90D4A10681968BDE8F8400431D7
:10132000FFF780BC0A4A106819680431FFF77AFC9D
:10133000084B1A68944238BF1C60F8BD74C407207B
:1013400028C3072010C4072060C4072030C307202B
:101350002CC3072040C407202DE9F84F4FEA820A2A
:10136000804650460D4699460B9EFFF74BFB0746BD
:10137000002800F09B805820FFF744FB044600281B
:1013800000F0918052460763A52138460CF0F6FF25
:10139000236BAAF1040A9A442AF0070A6B1E04F18F
:1013A00034020735597802F8011B13F8011F09B1FF
:1013B000AB42F7D10A9D4FF0000B092D28BF09253C
:1013C000271DE5626564384684F83BB0C4F848B030
:1013D000FFF719FCC5F10A0504F11800FFF713FC2B
:1013E000C4F850B02461A5616462C4F84CB084F8BC
:1013F00054B04A4641465046FFF73AFB206006B1DA
:101400003460FFF761FB304B304E1A68DFF8E48040
:1014100001321A603568002D4BD134601B68012BF6
:101420001AD108EB05001435FFF7E2FBC82DF8D1FF
:10143000DFF8C490264D4846FFF7DAFB2846FFF751
:10144000D7FB2448FFF7D4FB2348FFF7D1FB234BFE
:10145000C3F80090224B1D600125224A22491368DF
:10146000086801331360E26A05FA02F303431420AB
:101470000B6000FB02803946FFF7C8FBFFF734FB27
:101480001A4B1B6863B13368DA6AE36A9A4207D27F
:101490004FF08052164B1A60BFF34F8FBFF36F8F20
:1014A0002846BDE8F88F3846FFF7BBFA4FF0FF3506
:1014B000F6E70E4B1B68002BCED13368DA6AE36A7D
:1014C0009A4298BF3460C7E700C4072028C30720AA
:1014D00028C4072048C4072060C407202CC3072065
:1014E00030C307200CC4072010C407205CC40720A9
:1014F00004ED00E034C3072014C4072038B5104BB6
:1015000004461B68984215D0FFF7DEFA6569FFF7BD
:10151000EBFA0C4B1B689D420ED00B4B1B689D4297
:101520000AD00A4B9D4209D1A36A002B14BF0220A6
:10153000032038BD002038BD022038BD012038BD51
:1015400028C307202CC3072030C3072060C407200E
:1015500013B50024114B00940193802223461049B7
:101560001048FFF7F9FE012816D14FF0100383F35E
:101570001188BFF36F8FBFF34F8F4FF0FF320A4BCD
:101580001A600A4B18600A4B1C60FFF713FB02B08D
:10159000BDE81040FFF7F6BA02B010BD3CC407200A
:1015A000264D02008112010040C407205CC40720C0
:1015B00074C407204FF0100383F31188BFF36F8FBB
:1015C000BFF34F8F0022024B1A60FFF77BBA00BFB8
:1015D0005CC40720024A136801331360704700BFE0
:1015E00008C40720014B1868704700BF74C4072067
:1015F000014B1868704700BF74C40720014B18687E
:10160000704700BF00C407202DE9F84F364B1B6818
:10161000002B47D1354B1C6801341C605CB9344A3F
:10162000344B116818681060334A1960136801332D
:101630001360FFF739FE314D4FF0000B2B68304F30
:101640009C423ED3DFF8A880DFF8C490D8F8002091
:10165000126872BB4FF0FF322A6032E006F1040AD2
:101660005046FFF7F6FAB16A19B106F11800FFF714
:10167000F0FA01224FF0140EF06AD9F8003002FAA5
:1016800000F119431F4BC9F800100EFB0030514602
:10169000FFF7BCFA3868F16AC26A914228BF4FF07E
:1016A000010BD3E7184A4FF0000B136801331360A6
:1016B00011E0D8F80020D268D66871688C42CDD28B
:1016C00029603A680F4BD16A14224A439A58022A79
:1016D00028BF4FF0010B0D4A1268002A18BF4FF0C7
:1016E000010B5846BDE8F88F08C4072074C40720D2
:1016F0002CC3072030C3072044C4072040C4072060
:1017000028C3072034C3072004C4072078C4072057
:1017100010C407202DE9F843FFF7D6F92A4B1A68C1
:10172000013A1A601C682CB10024FFF7DDF920464D
:10173000BDE8F883254B1B68002BF5D0DFF8A4909B
:10174000234FDFF8A480D9F80030E3B90CB1FFF7DC
:10175000ABFD204D2C6844B101271F4EFFF754FF0D
:1017600000B13760013CF9D12C601B4B1B68002B8A
:10177000DAD04FF08052194B1A60BFF34F8FBFF38E
:101780006F8F0124D1E7D9F80C300125DC68261DC4
:1017900004F11800FFF75DFA3046FFF75AFA1420FB
:1017A000E26A396805FA02F30B4300FB0280314616
:1017B0003B60FFF72BFA0A4BE26A1B68DB6A9A422E
:1017C00024BF054B1D60BEE708C4072000C40720E6
:1017D00010C4072004C4072078C4072004ED00E0EB
:1017E00028C3072048C4072034C3072010B5FFF7DB
:1017F000F1FE124B04681A686318A24217D29C4289
:1018000019D99A422CBF00210121036019B100218E
:10181000981AFFF75BFDFFF77DFF38B94FF0805254
:10182000074B1A60BFF34F8FBFF36F8F10BD9C4201
:10183000E7D90121E9E70021E7E700BF74C40720E9
:1018400004ED00E008B540B94FF08052084B1A6033
:10185000BFF34F8FBFF36F8F08BDFFF7BBFE0021B3
:10186000FFF734FDFFF756FF0028EDD008BD00BF9D
:1018700004ED00E0264B70B51A68264B12B1012228
:101880001A6070BD1A60FFF79FF9234A234C156850
:10189000A84204D92168CB6C5B1B0344CB6423684A
:1018A00010601B6B1A68B2F1A53F0BD15A68B2F1F8
:1018B000A53F07D19A68B2F1A53F03D1DB68B3F128
:1018C000A53F04D0206821683431FFF76DF8144B30
:1018D0001B68B3FA83F31420DBB2C3F11F0300FBD0
:1018E00003F210498D186E68083276680A449642F1
:1018F00000FB031308BF72686E6008BF6A605B6814
:10190000DB68236023685A6B074B5A6470BD00BFC5
:1019100008C4072078C40720FCC3072028C3072079
:1019200010C4072034C307200040024070B50446AD
:10193000234EFFF7C9F804B93468251D2846FFF780
:1019400088F960B91421E06A1E4B41435B5833B9F2
:1019500001221D4982400B6823EA02030B60A36A3F
:101960001BB104F11800FFF774F92946174D184808
:10197000FFF74CF9FFF7B8F82A682AB1FFF7A4F887
:10198000FFF792FCFFF7B0F833689C4216D12B6842
:1019900043B14FF080520F4B1A60BFF34F8FBFF32C
:1019A0006F8F70BD0C4A0A4912680968914201D1D3
:1019B000336070BDBDE87040FFF75CBF70BD00BF15
:1019C00028C3072034C3072010C407205CC40720A5
:1019D00060C4072004ED00E000C4072010B50C46E9
:1019E000054B19681831FFF71DF92046BDE8104076
:1019F0000121FFF76BBC00BF28C3072038B5C368BF
:101A0000DC6804F118052846FFF723F9114B1B6821
:101A1000E3B9251D2846FFF71CF901230E49E26AA8
:101A200008689340034314200B6029460B4B00FBCE
:101A30000230FFF7EBF80A4BE26A1B68DB6A9A4256
:101A400085BF0120074B0020186038BD2946064895
:101A5000EFE700BF08C4072010C4072034C30720E5
:101A600028C3072078C4072048C40720034B1B68FD
:101A70000360034B1B684360704700BF44C40720EA
:101A800074C4072038B50D460446FFF71DF80E4B09
:101A90002A681868531C10D00C4B21681B689942A7
:101AA000636801D098420DD2C11A8A420AD91B1A22
:101AB00013442B602046FFF7D9FF0024FFF714F8EA
:101AC000204638BD0124F9E774C4072044C4072028
:101AD0000122014B1A60704778C407202DE9F041BC
:101AE0000C4617469846064658BB1B4B1D6805F129
:101AF00034036360EB6A256023612B6BE361EB6B5E
:101B0000A360237B032B07D1FFF764FDAB6A0BB106
:101B100002232373FFF7FEFD6B6CB8F1050F6361C1
:101B2000EB6CA3610FD084F80C808FB1296B0A464F
:101B3000531A12F8010BA528FAD09B082384BDE89C
:101B4000F0810546D3E73046FFF7D8FC2073ECE779
:101B50002784BDE8F08100BF28C307202DE9F84F96
:101B60000D6881460C4693461DB300254FF0240AAC
:101B70004B6801F108075B68BB424B6004BFCB6850
:101B80004B604B68D3F80C8063680AFB05915B6877
:101B900001229F42636008BFE36805F1010508BFA9
:101BA00063606368DE685B463046FFF797FFB045C9
:101BB000EAD12846BDE8F88F2DE9F843064690465D
:101BC000FFF708FD1D4B1B688B4234D800252427E6
:101BD0002C46DFF8789005F1B40107FB0460012280
:101BE0004944FFF7BBFF143D15F1C80F0444F2D17F
:101BF000134B0222196807FB0460FFF7AFFF114B7C
:101C000004441968022207FB0460FFF7A7FF04449D
:101C100007FB046003220C49FFF7A0FF0444B8F15E
:101C2000000F03D0FEF7D0FFC8F80000FFF772FDE9
:101C30002046BDE8F8830024F8E700BF00C4072071
:101C40002CC3072030C3072060C4072034C30720FB
:101C500008B9064B1868026B1346981A13F8011B53
:101C6000A529FAD0C0F38F00704700BF28C3072012
:101C7000054B1B6833B1054B1B68002B0CBF0220C2
:101C800000207047012070475CC4072008C407206B
:101C90002DE9F0410446002839D01E4DC36A2A6858
:101CA000D26A934233D2142782691B4E002AA8BFFE
:101CB0002A6807FB0363A2BFD26AC2F10A028261EB
:101CC00042699A4220D100F104084046FEF7C1FF64
:101CD000124A48B9E06A4743F3592BB90121136806
:101CE000814023EA010313602B681168D86A01233D
:101CF00083400B4313601423E062414603FB006002
:101D0000BDE8F041FEF782BF2B68DB6AC362BDE825
:101D1000F08100BF28C3072034C3072010C4072068
:101D2000F8B5044608B90020F8BD836CC16A426C5E
:101D3000013B91428364F6D0002BF4D1051D284667
:101D4000FEF787FF104E114A50B91421E76A794314
:101D500073582BB901201368B84023EA00031360BD
:101D6000636CC3F10A01E362A1610124116804FA02
:101D700003F0084310601420294600FB0360FEF7BF
:101D800045FF2046F8BD00BF34C3072010C407201C
:101D9000044B1A681AB119688A6C01328A6418688F
:101DA000704700BF28C3072038B5FFF713FCB424E1
:101DB000124D635913B12819FFF74BFA143C14F173
:101DC000140FF6D10E4B1A68126812B11868FFF79B
:101DD00040FA0C4B1A68126812B11868FFF739FA0A
:101DE000094803680BB1FFF734FA0022074B1A6069
:101DF000FEF7F4FEBDE83840FFF78CBC34C3072083
:101E00002CC3072030C3072060C40720FCC3072071
:101E100010B5FEF7D9FE064B064A196829B11968B4
:101E20001468CB6C1B1B0344CB64106010BD00BF57
:101E300028C30720FCC3072008B5FEF7C5FE014BE9
:101E4000186008BDFCC307200120704770B5054627
:101E5000164609B9002070BD4C1E14F8011F39B197
:101E60002B6832465B68284698470028F5D1F1E791
:101E7000012070BD38B504461546FFF7E7FF2A4636
:101E80002046BDE838400149FFF7E0BF2B4D020076
:101E90002DE9F743002407460D469046994602AEC9
:101EA00006F8014D3B684A461B683146384698475C
:101EB00078B19DF807200D2A03D00A2A1CBF2A708A
:101EC00001350134444509DA0A2AEBD100232B708D
:101ED00001E0002CFAD103B0BDE8F0830020F5E763
:101EE0000EB433B50446FFF7C3FE022806D1002323
:101EF0004FF0FF321946E068FFF7C6F806AB0093D3
:101F0000009B059A2189606801930FF0CDF9238920
:101F1000054698420ADB20F00F01103189B2218179
:101F200060680DF0B5FC60600028E9D14FF0FF3229
:101F300061682046FFF78AFFFFF79AFE022805D165
:101F40000023E0681A461946FEF796FF284602B0BD
:101F5000BDE8304003B07047064B10B50360002366
:101F600004464360038103740120FFF707F8E06033
:101F7000204610BD4C4D0200044B10B504460360D2
:101F8000406808B10CF09EF9204610BD4C4D02008F
:101F90002DE9F84344790546894690461E46089F38
:101FA0001CB100242046BDE8F883002BF9D0FFF7D0
:101FB0005FFE02282CD020222B682F61AE61AC7509
:101FC00085F8149085F815801A60FEF7BBFA4FF477
:101FD0007A7200230BF058FA10F57A7641F1000777
:101FE0000023E8681A461946FFF74EF820B1AC7D89
:101FF000B4FA84F46409D5E7FEF7A4FA4FF47A72D0
:1020000000230BF041FA8F4208BF8642E8D2EEE788
:1020100023464FF47A722146A868FFF735F8002866
:10202000BFD0234622462146E868FFF72DF820223C
:102030002B68AC7585F8149085F815802F61AE611A
:1020400021461A60E86823464FF47A72FFF71CF8BD
:1020500018B1AC7DB4FA84F464090023A8681A4668
:102060001946FEF709FF9DE741F00101FFF790BF18
:102070001FB5002404AB03F8014D01240094FFF7C1
:10208000F3FF9DF80F0004B010BD01F0FE01FFF753
:102090007FBF1FB504AC04F8013D01230093234624
:1020A000FFF7F3FF04B010BD1FB5002204AB03F827
:1020B000012D0092FFF7D8FF05B05DF804FBFFFF8C
:1020C00038B500250446016045710120FEF756FF32
:1020D0000322A06029460120FEF7ACFE2368094ACE
:1020E000E060934203D10A232371204638BD064A9B
:1020F000934201D10B23F7E7044A93420CBF0C2310
:102100006323F1E700C0014000C0054000000A4021
:1021100090F9043070B50B2B05460C46164634D0AA
:102120000C2B35D00A2B36D101210720FEF7A2F95E
:10213000B6F57A7F98BF4FF47A714FF06C0294BF76
:10214000714316492B68B4FBF1F19A61282264208F
:1021500049084A43B2FBF0F21A613C225143002283
:10216000B1FBF0F15961DA601A625A629A62402258
:1021700001201A6095F90430094A590903F01F0338
:1021800000FA03F342F8213070BD01211320CDE79E
:1021900001211A20CAE7002070BD00BFA0860100FF
:1021A00000E100E0036830B55968024628294AD0AA
:1021B0000BD810292CD0182932D008290AD1027D39
:1021C00002F0FE029A60996128E0402959D00DD8AA
:1021D00038296DD0596891752021996110211960B5
:1021E000082199611968C906FCD425E0502951D00D
:1021F0005829EFD181699B680B7020210368996190
:1022000010211960082199611968C806FCD413E0EF
:10221000027D42F001029A6008229A61002030BDDE
:1022200020201469986108215CB998611020186019
:1022300099611968C906FCD4137DDD0715D5012005
:1022400030BD527DBEE7007D10F0010002D020229B
:102250001A60E1E7116951B920229A6110221A60CF
:1022600008229A611A68D406FCD4022030BD946911
:10227000013914F8015B9D609461116108229A6133
:1022800030BD202102699961012A4FF00402DFD894
:102290009A61C1E79B68816904220B7083690133ED
:1022A00083610369013B012B03610368D0D1EFE730
:1022B000017D5B6811F0010F937514BF01200220AE
:1022C00030BDFFFF13B50446FFF76CFF80B100235C
:1022D00002A941F8043DE068FEF7A2FE019B3BB174
:1022E0004FF08052034B1A60BFF34F8FBFF36F8FD5
:1022F00002B010BD04ED00E037B5044615468DF878
:102300000710FFF7B5FC022809D063699DF8072084
:102310001A701A7D5206FCD5012003B030BD00238F
:102320002A460DF10701E069FEF7A6FD0028F4D06A
:1023300063691B7D5B06EFD500230DF107011A468B
:10234000E069FEF7A1FE0028E6D063699DF807204A
:102350001A70E1E710B50446024B0360FFF70CFE6C
:10236000204610BD804D020010B50446FFF7F2FF75
:10237000204607F067F8204610BD10B50446FFF769
:1023800077FC022807D1E069FEF74CFF18B1012065
:10239000FFF758FAF7E7012010BDF8B506461446D6
:1023A0000F4609B90020F8BD8369002BFAD0FFF76A
:1023B0005FFC022809D1002322463946B069FEF7A6
:1023C00063FE003018BF0120F8BDFEF7BBF84FF4E4
:1023D0007A7200230BF058F8002504440023394694
:1023E0001A46B069FEF750FE58B9FEF7ABF84FF445
:1023F0007A7200230BF048F88D4208BF8442EDD278
:10240000D0E70120F8BDFFFF802310B54469090122
:102410002373006AB0FBF1F00AF0ACFC064B00221B
:102420000AF06CFB0AF01CFD80B2030A237103233F
:10243000C0B22070237310BD0000E03F002373B5CD
:10244000426901938DF803309368044603F00E034C
:10245000042B21D00C2B1FD0022B3FD1C069FEF7DB
:10246000EAFEE38C984203D9E069FEF7E4FEE084DB
:102470001026002501AA0DF10301E069FEF79EFE7A
:1024800000282ED15DB34FF080521B4B1A60BFF372
:102490004F8FBFF36F8F22E0FFF7AAF80025A062ED
:1024A00063691A7DD2070ED51B7801AA8DF8033017
:1024B0000DF103010023A069FEF772FD019B002BC3
:1024C00018BF0125ECE7A069FEF7B5FEA38C984282
:1024D000D8D9A069FEF7AFFEA084D3E7137D02B080
:1024E00070BD63699DF803201A70019B002B18BF13
:1024F0000125013EC6D0BDE704ED00E038B5044635
:102500000D46FFF729FD064B656123600023204639
:10251000A361E3612362A384E384A36238BD00BFA7
:10252000804D020070B516461D46254A4369044693
:10253000934201622FD101210320FDF79BFF20224E
:10254000204B31461A604122636920461A721A7A7A
:1025500042F006021A72FFF757FFA26942B9082D2E
:1025600028464FF00101B8BF0820FEF763FCA061C8
:10257000E2693AB9049801210828B8BF0820FEF79B
:1025800059FCE061072263695A60A3690BB1E369F2
:10259000A3B9002070BD0C4A934205D10121182037
:1025A000FDF768FF8022CBE7084A9342F1D1012171
:1025B0001920FDF75FFF4FF48072C1E7012070BD65
:1025C00000C0004000E100E00080094000C0094078
:1025D000074A136823F0E06323F0FF03136001232D
:1025E000116803FA00F041F08071084310607047F1
:1025F00000400340002307B50D4A019352680D487F
:10260000C2F30B12ADF802200DF1020101AA00681D
:10261000FEF7C6FC019B3BB14FF08052064B1A609F
:10262000BFF34F8FBFF36F8F03B05DF804FB00BFA4
:102630000040034080C4072004ED00E010B5FEF721
:1026400007F90121C4080C20FDF714FF03210C2019
:10265000FDF72AFF4FF40013104A114913600223BB
:10266000B4FBF3F0884214D8116841EA03231360E5
:102670000120FEF783FC0B4B002218600221012091
:10268000FEF7D8FB4FF48002074B1860074B1A6027
:1026900010BD0233B3F5807FE2D1E9E7004003408B
:1026A0003F5DC6007CC4072080C4072000E100E035
:1026B000F7B5002407280546ADF806401DD8FFF7FA
:1026C000D7FA0228154E1CD1154F23464FF0FF3282
:1026D00021463868FEF7D8FC2846FFF779FF2346E5
:1026E0004FF0FF320DF106013068FEF7CDFC2346B6
:1026F000224621463868FEF7BFFBBDF8060003B04E
:10270000F0BD2846FFF764FF00230DF106011A46CD
:102710003068FEF7B9FC0028F6D0EEE780C4072049
:102720007CC40720026830B5D36913F0040310D0CD
:1027300002F1300301F1100451F8045BA14243F8A7
:10274000045BF9D1438A0133438221230120536082
:1027500030BD184630BDFFFF2DE9FF41264C450135
:1027600054F805806719D8F80C60D8F8083033435E
:10277000D90716D57868FEF75EFDFB8908F12001C0
:1027800098424FF0000388BFF88167191A467868AD
:10279000FEF706FC58B3BB8A0133BB820423C8F89A
:1027A000043040F202631E4212D06719B868FEF787
:1027B00042FD3B8A0022984288BF388267196946E9
:1027C000B868FEF7FBFC18B169463846FFF7AAFF68
:1027D000B20603D563199B6930469847330703D582
:1027E0002C44E3693046984704B0BDE8F081BB89CA
:1027F0000133BB81D2E700BF8CC00720084B10B566
:10280000D3F8C440A20402D50020FFF7A5FF63045B
:1028100004D5BDE810400120FFF79EBF10BD00BFEA
:1028200000C00F40F8B5012484400F4616461D46EF
:1028300010D079B10C200BF03DFD58B14FF40012CF
:10284000336880E8900083602B6830601C43024B43
:102850002C601A60F8BD00BF00E100E010B414461F
:102860000029064A0649074B18BF1346064A18BFF7
:102870000A46214610BCFFF7D5BF00BF9480024036
:1028800084C407209080024088C4072070B5174B8D
:102890000E465C69164B05461A6C1A2022F470022B
:1028A0001A641A6C04F4406442F420021A64996EAB
:1028B00041F440619966196821F470011960196842
:1028C00041F4200119600321FDF7EEFDFDF7C0FF83
:1028D000B4F5406F06D13246C1082846BDE87040C5
:1028E000FFF716BC012300206B7170BD00C00920EA
:1028F00000C0024010B504460249FFF7E1FB204644
:1029000010BD00BF00000A4038B5074C236833B93A
:102910001C2006F093FD0546FFF7ECFF25602068BC
:10292000BDE83840FFF7CEBC8CC4072008B5044B87
:102930001B689847034A137A43F00103137208BDDA
:1029400090C4072000000B401FB50446054B0DF155
:10295000100E0FCB0EE90F000EEB840454F8100C90
:1029600004B010BD944D0200F7B50F460646FFF7C0
:10297000EBFF17230124162202218DF803308DF876
:10298000073002AB1E448DF802208DF801108DF83F
:10299000004005468DF8051016F8080C21468DF804
:1029A00006208DF80440FDF765FD214616F8040C5D
:1029B000FDF77AFD0023AB606C602B67FDF748FFE5
:1029C000034BB0FBF3F04743EF6003B0F0BD00BF33
:1029D00040420F0070B590F853508AB0044605B9D4
:1029E000457C284606F03CF9002294F8523084F8E1
:1029F000522094F8542006460092012104F13A0234
:102A0000284605F05BFF044670B1314602A806F087
:102A1000ADFC48B19DF80C3003F0C003C02B03D1CE
:102A20009DF80830AB4200D0002420460AB070BDAB
:102A300010B50446024B0360FFF79EFA204610BD16
:102A4000084E020010B50446FFF7F2FF204606F0DC
:102A5000F9FC204610BD10B590F85240621CD2B26D
:102A60000444172A80F8522084F83A1002D90368E7
:102A70009B689847012010BD70B50E46037E90F804
:102A8000311004469942B4BF012500250BDB1146E5
:102A9000113006F063FC30B10023257E84F831301C
:102AA000ED1A18BF01253DB194F831305A1C84F855
:102AB00031201C44637E3370284670BD70B50446D7
:102AC000FFF74AFA0C4B00252360212603233246E8
:102AD00084F85430294684F8535004F111000BF067
:102AE0004DFC3246294604F132000BF047FC07202A
:102AF00005F0B4FD204670BD084E0200F0B587B069
:102B00006C460F4D074695E807008DE8070003AEB9
:102B100095E8070086E807000C22314620460BF0B6
:102B2000F9FB38B903CC386020687960B860384662
:102B300007B0F0BD95E8070084E80700E8E700BFAC
:102B4000144002400022184B1A720278C2F30502A8
:102B500083F820204278C2F3050283F8242082788B
:102B6000C2F3040283F82820C278C2F3020283F879
:102B700030200279C2F3040283F82C204279C2F398
:102B8000030283F83820C179827901F00F0142EA0B
:102B90000122417A9A87027A01F00F0142EA01226A
:102BA0009A8601221A727047004002401FB5012127
:102BB0000920FDF75FFC01222F4B01A81A72FFF7D5
:102BC0009DFFBDF80A3003F62603C3F30B030F2B5A
:102BD0001ED89DF8053003F03F033B2B18DC9DF811
:102BE000043003F03F033B2B12DC9DF8063003F06A
:102BF0001F03172B0CDCBDF80C30C3F30B03B3F52C
:102C0000B77F05DA9DF8093003F00F030C2B2FDD99
:102C100001229DF8083001A862F304038DF8083002
:102C20009DF8093062F3030340F2DA728DF809303F
:102C3000BDF80A3062F30B03ADF80A309DF8073097
:102C40006FF302038DF807309DF806306FF304032D
:102C50008DF806309DF805306FF305038DF80530CB
:102C60009DF804306FF305038DF80430FFF76AFF19
:102C700005B05DF804FB00BF0040024007B501A8A5
:102C80000EF086F801A80AF09BFD03B05DF804FB86
:102C900008B501211D20FDF7EDFB0122024B1A634F
:102CA0001A6BD207FCD508BD004000504FF0FF332F
:102CB00037B5B1F5805F01934AD2274B1C69E50710
:102CC00048D4264C2469E40744D4254CE5686D07B4
:102CD00035D40325234CA5602561234D1D60002AB2
:102CE0002FD001AC5C6041F00044DC6000249C60AB
:102CF00041F206041C61194C3AB3206041F0806136
:102D00000022E1606560A2604FF4086222611A69E6
:102D100042F001021A61226942F001022261104A66
:102D2000516A41F003015162D868C0F30B000028DA
:102D3000FAD1536A23F00303536203B030BDA56890
:102D4000C4E7586041F00844CFE701AA2260D7E702
:102D50000120F2E70220F0E720410050004100503E
:102D600000000340004000500800034010B50A4C2A
:102D700023681BB90120FEF701F92060FEF778FFF8
:102D8000022808D1002320684FF0FF32BDE8104030
:102D90001946FEF779B910BD94C4072010B5FEF7A7
:102DA00067FF022808D1BDE81040002303481A46F7
:102DB00019460068FEF760B810BD00BF94C4072034
:102DC00010B50446024B0360FFF7D6F8204610BD4D
:102DD000804D020010B50446FFF7F2FF204606F0D2
:102DE00031FB204610BDFFFFF7B50D460D490446E7
:102DF0000868164620F0F000086008681F4640F09A
:102E00005000086001210320FDF74EFBFDF720FD77
:102E10000097014633462A462046FFF783FB03B05E
:102E2000F0BD00BF00C0024010B504460349FFF7E3
:102E300065FB034B2046236010BD00BF00C000406F
:102E4000704E020038B5074C236833B92C2006F0C9
:102E5000F5FA0546FFF7E8FF25602068BDE8384031
:102E6000FFF7ECBA98C4072010B50446024B036084
:102E7000FFF782F8204610BD804D020010B50446D1
:102E8000FFF7F2FF204606F0DDFA204610BDFFFFF7
:102E900010B504460349FFF731FB034B204623607E
:102EA00010BD00BF00800940D84E020038B5074C65
:102EB000236833B92C2006F0C1FA0546FFF7E8FF76
:102EC00025602068BDE83840FFF7B8BA9CC40720E9
:102ED00010B50446024B0360FFF74EF8204610BDC4
:102EE000804D020010B50446FFF7F2FF204606F0C1
:102EF000A9FA204610BDFFFF10B504460349FFF7AD
:102F0000FDFA034B2046236010BD00BF00C00940FE
:102F1000404F020038B5074C236833B92C2006F027
:102F20008DFA0546FFF7E8FF25602068BDE83840C8
:102F3000FFF784BAA0C407202DE9F84F1C4F0446C0
:102F40008846002B18BF1F46914672B369B3436889
:102F500082689A421CD305685D1919D2A900C0681D
:102F60000CF096FCA668E0604FEA860AB5420ED9DE
:102F7000102006F063FA8346102200210BF0FEF9C0
:102F8000E368013643F80AB00AF1040AEEE7656027
:102F9000A368E268591C52F823300A9AA160C3F86A
:102FA00000905F60C3F80880DA60BDE8F88F00BF6A
:102FB000406502002DE9F04F0C4693B080464FF07B
:102FC000FF321F492046FEF741FF0025DFF87890C9
:102FD000DFF878A0DFF878B0D8F808309D4226D224
:102FE000D8F80C3053F825707B68184601930CF024
:102FF0004BFF2028019B14D902AE3A685146304657
:103000000CF062FE0A2130460CF094FF864202D298
:1030100059460CF031FF31462046FEF761FF01357D
:10302000DAE73A6849462046FEF75AFFF7E74FF0DD
:10303000FF3204492046FEF71DFF13B0BDE8F08FB4
:10304000CC4F0200FF4F0200F34F0200E04F02009E
:10305000C14A02002DE9F041054608460F461646D2
:1030600000F0D2FE002823DD0024AB689C421BD276
:10307000EB68384653F82480D8F8001000F00BFFB6
:1030800080B1D8F804305BB11A780C49002A18BF17
:1030900019464FF0FF323046BDE8F041FEF7EABE78
:1030A0000649F6E70134E0E74FF0FF320449F2E762
:1030B00031462846BDE8F041FFF77CBF544F02007F
:1030C000784F020038B50D460024284600F09CFEDB
:1030D000844208DA2146284601F02DF80378202B97
:1030E00001D00134F1E72146284600F078FF284658
:1030F000BDE83840014900F0DABF00BF5E6F020052
:103100002DE9F04F0C4691B0514906462046154630
:1031100000F0EDFF20224F49204600F044FF074613
:1031200000284CD18146B368994556D34FF0000929
:10313000DFF82CB1B368994580F082802022F368D3
:103140000DEB020153F8298003A800F037FED8F8F0
:10315000001003A801F0A3F8002301AA5946204655
:103160000193029300F059FE01A80CF08DFE012896
:1031700060D901A903A800F0FFFE8246002859D0BB
:10318000D8F8002021463046FFF79CFFD8F80830D9
:10319000D8F80C2029462046984760B94FF0FF32F6
:1031A0002D492846FEF766FE4FF0FF32D8F804108E
:1031B0002846FEF75FFE03A800F014FE35E0254A1E
:1031C00021463046FFF77EFF2A4621463046FFF76C
:1031D00041FF384611B0BDE8F08FF368202253F864
:1031E00029802046D8F8001000F0DDFE8246F0B1BC
:1031F000D8F8002021463046FFF764FFD8F80830A1
:10320000D8F80C2029462046984707460028E0D1E8
:103210004FF0FF3210492846FEF72CFE4FF0FF32E8
:10322000D8F804102846FEF725FE5746D1E709F1E5
:10323000010978E703A800F0D5FD09F1010979E754
:103240004FF0FF3205492846FEF714FEC1E700BFE4
:103250002B4D02009D4F0200A24F0200784F02004A
:10326000C74F020008B50C200BF024F818B100235A
:1032700003604360836008BD00B18068704738B563
:103280000D46044608B9002038BD08200BF012F89E
:103290000028F8D0002343602368056033B920601C
:1032A000A36860600133A360012038BD6368002B10
:1032B000F6D05860F4E798B12AB121B1106878B11E
:1032C0004368136008E0006841B100B97047406886
:1032D0000139F9E7002AF3D1006870470028F9D1D5
:1032E0007047F8B50D4616461F4608B90020F8BDD0
:1032F0000029FBD00468002CF8D0069B3A463146E2
:103300002068A84708B92068F8BD6468F3E7F8B5F5
:103310000D4616461F4608B90120F8BD0029FBD00E
:103320000468002CF8D0069B3A4631462068A8472E
:1033300008B16468F5E7F8BD002337B502AC44F87E
:10334000043D0D4D40B90346024621462868FDF76D
:103350009BFE019803B030BD0A2221462868FDF784
:1033600093FE03460028F4D104490A8801320A80FA
:103370004FF0FF32E9E700BFA8C40720A4C407202C
:10338000F0B50024ADF50D7D0D4607460294FDF71E
:10339000D9F84FF47A7200230AF076F84FF40972E4
:1033A0000646214603A80AF0E9FF002D38D0122274
:1033B0001C4903A803F0ACFC044668BB069903A8AB
:1033C00003F022FF044630B902AB2A46394603A86F
:1033D00003F0EDFD044603A803F004FFFDF7B2F887
:1033E0004FF47A7200230AF04FF80F4B801B1A88B3
:1033F0009042029A88BF188095420CBF0126002691
:1034000006D0059B2146009308482B460CF062F934
:1034100030460DF50D7DF0BD05480CF05BF9DDE79C
:103420002C46DBE78F500200ACC40720AD500200F1
:10343000995002002F4B2DE9F74F1D68DFF8BC9023
:103440002E46DFF8BCA005F58068002302AF47F8E0
:10345000043D4EF660223946D9F80000FDF714FE0F
:1034600008B1019B2BB9711B2846FFF789FF2E4637
:10347000EBE7D9F80000FDF7D5FEBAF80030019C63
:103480000130984288BFAAF8000020460CF0FCFCEE
:103490000A230021235400F1010B019A06EB0B04CF
:1034A00002F80B10A04501991FD8A8EB0602304680
:1034B0000AF03FFFA4EB08044FF480612846FFF7B1
:1034C0005FFF3CB10199ABEB040B224659442846FF
:1034D0000AF02FFF2C44084800234FF0FF323946F2
:1034E0000068FDF7C9FC2646AFE75A4630460AF0A9
:1034F00020FFF0E7C4C40720A8C40720C0C40720E9
:10350000A6C4072073B502AC44F8040D0D4649B1BA
:1035100000234FF0FF3221460A480068FDF7ACFC5B
:1035200002B070BD06460CF0AFFC0A233354019B79
:10353000411C5D540198FFF723FF2B462A46214684
:103540000148EAE7C0C40720A8C4072007B5FEF772
:103550008FFB02280CD1084B1B684BB10023074896
:1035600002A941F8043D4FF0FF320068FDF784FCEA
:1035700003B05DF804FB00BFC4C40720C0C407202B
:1035800003289ABF024B53F820000020704700BF69
:10359000B0C40720014B1888704700BFA4C407209F
:1035A000014B1888704700BFACC40720014B188836
:1035B000704700BFA6C407202DE9FF412B4C804671
:1035C0002568002D4AD14FF4806003950AF072FE01
:1035D000274E2060A8B92068002842D1336863B123
:1035E0000A24002303A91A463068FDF74DFD10B1E7
:1035F00003980AF067FE013CF3D11E480CF0DEF898
:103600002CE02A4604210A20FDF714FC1A4F2A4612
:10361000386004210A20FDF70DFC3B683060002B68
:10362000D9D00028D7D00A2596200AF043FE03906F
:103630000028D0D0002303A91A463068FDF71CFCEF
:10364000013DF1D10195CDF800802B464FF4C072B9
:103650000A490B48FDF780FE0028BCD004B0BDE845
:10366000F0810AF02FFE00232360B7E7C4C40720CF
:10367000A8C4072043500200C0C407203C500200E9
:1036800035340100012303FA00F0044B1A7811B11C
:1036900010431870704722EA0000FAE7CCC00720F8
:1036A0002DE9F04F9A46454B97B01B6806460C46ED
:1036B0001546002B7CD00FA8FFF720FAFCF742FF3D
:1036C0004FF47A72002309F0DFFE8146FEF7D0FA4C
:1036D0003B4B821ED2F1000816AF48EB02080FCB1D
:1036E00007E90F00002C66D02F2120460CF022FCA9
:1036F00020B95C2120460CF01DFC00B1441CDFF811
:10370000D4B04046002D08BF5D46FFF715FE9DF87A
:103710003E1095F800C001F01F0E9DF83D109DF879
:10372000412001F03F010B919DF83C109DF8403085
:1037300001F03F010C9116A901EB860151F8101C14
:1037400003F01F030D911F49CDF800E0BCF1000FFD
:1037500008BF594607910D9902F00F0204910C9988
:10376000CDF820A002910B99069501910594164978
:10377000CDF80C9007460CF0A7FA21ABC0F19501EB
:10378000209A38440E930DF08FFD104A414652F8AE
:1037900026303846013342F82630FFF7B3FE0C4B93
:1037A0001B7843FA06F6F30702D538460CF006F804
:1037B00017B0BDE8F08F074CA1E700BFC4C40720D5
:1037C0002C500200FE51020068500200B0C40720D5
:1037D000CCC00720406502000FB40E4B37B51B6804
:1037E00093B1FEF745FA831E5C425C412046FFF729
:1037F000A3FD054607AB9521069A01930DF054FDF4
:1038000021462846FFF77EFE03B0BDE8304004B0F5
:10381000704700BFC4C4072010B50446FDF754F933
:10382000013C14F8010F18B9BDE81040FDF75CB970
:10383000FDF79EF8F5E70FB470B54FF48075C2B090
:1038400046AC54F8046B2A46002102A80AF096FD03
:1038500023463246294602A801940DF025FD044670
:1038600002A8FFF7D9FF204642B0BDE8704004B07F
:103870007047002313B50C4602A941F8043D0068C7
:10388000FDF7CEFB019B1BB1236843F001032360CE
:10389000012002B010BD30B5044685B001A80D4628
:1038A000FFF72CF99DF80630227903F01F039A42A6
:1038B0001BD19DF80530627903F03F039A4214D181
:1038C0009DF80430A27903F03F039A420DD1002302
:1038D00004A941F8103D23681868FDF7A1FB009B7F
:1038E0001BB12B6843F001032B60012005B030BDF4
:1038F00030B50025234A87B01378234C43F00103E9
:10390000137003A80295FFF7F9F82B46009502AA59
:103910001E492068FFF7FBFC9DF80C3013F03F03B5
:103920001BD1009302AA19496068FFF7F0FC9DF8CB
:103930000D3013F03F0310D1009302AA1349A06881
:10394000FFF7E5FC9DF80E3013F01F0305D100933F
:1039500002AA0E49E068FFF7DAFC00230C48009346
:1039600002AA0C490068FFF7D2FC029B3BB14FF062
:103970008052094B1A60BFF34F8FBFF36F8F07B0B0
:1039800030BD00BF00400240C8C4072073380100AA
:10399000D8C407209738010004ED00E001207047EB
:1039A0000120704701207047936810B4013B002B41
:1039B000936008DA9469A34202DBCBB20A2B02D1EE
:1039C00010BC0DF0ADBC1368581C10601970C8B263
:1039D00010BC70470A4B70B51B780D467BB1094E81
:1039E000441E14F8011F21B130688268FFF7DCFF24
:1039F000F7E725B12846BDE870400BF0DFBE70BD8B
:103A0000E0C40720E0C0072070B50C460B4E451EF1
:103A100015F8011F21B130688268FFF7C5FFF7E78D
:103A200024B12046BDE870400BF0C8BE034B0A210C
:103A3000BDE8704018688268FFF7B6BFE0C0072095
:103A40003F4B2DE9F7431A68036904469A4236D181
:103A500000273D4600213B48FFF7BCFF3A49606A1A
:103A6000FFF7B8FF00213948FFF7B4FF384BDFF804
:103A7000EC901E688EB1D6F800800137D8F800307F
:103A800040461B69766898470028F3D14946D8F824
:103A90002400FFF7B9FF0125ECE755B92D4EAF42E1
:103AA0000DD0002330681A461946FDF7E5F90135B7
:103AB000F5E731462848FFF7A7FFFDF77BFD002318
:103AC00024484FF0FF3219460068FDF7DDFAFDF794
:103AD00089FD02AE46F8040DFDF784FD0546DFF8CA
:103AE0008080606818B1E168FDF7A7FBA0602368DB
:103AF000A16A5B6920469847074630B9606A41462B
:103B0000FFF782FF3846FDF711FFA3690133A36178
:103B1000236A1BB1FDF766FD854206D3E1690029E2
:103B2000DFD03046FDF762FEDBE7FDF75BFD256A7F
:103B300005442069FEF78CF880006061EEE700BF65
:103B4000F0C40720CE520200D2520200FF520200FF
:103B5000DCC40720ECC40720455302002C530200AC
:103B60006D5302002DE9F74F594D8046296839B948
:103B70005848FFF749FF0124204603B0BDE8F08F05
:103B80004FF000094C4600215348FFF723FFDFF8B0
:103B900078B12E68DFF874A1CEB13768766807F186
:103BA0001003FA6A019397F83030C2F38F02009342
:103BB000796A3B46584609F10109FDF7CDFB00281B
:103BC000EAD15146786AFFF71FFF0124E4E7314646
:103BD0004846FDF748F9414B186020B93146404846
:103BE000FFF712FF012400213E48FFF7F3FEDFF844
:103BF00020912E686EB1376876683B6838469B68BE
:103C000098470028F6D14946786AFFF7FDFE01245F
:103C1000F0E731463448FFF7DDFE2F6887B3C0CFA9
:103C200033683046DB68984700284CD0B8F1000F65
:103C300023D04FF001094FF0020A706A00F0F0FB48
:103C4000042306F1140229498DE80006834600F09A
:103C5000F9FD8DE8000600284FF0040306F1180274
:103C60002349584608BF4C4600F0ECFD28B92149CD
:103C7000706AFFF7C9FE0124D0E7002CCED0F6E72A
:103C800039461D48FFF7A6FE1C491D480AF052F8A8
:103C9000064620B100F0E0FC304609F0F1FD0021BD
:103CA0002A680D46174B186842B117685268FE6AB9
:103CB000B542F9D2386935460121F5E700293FF4CC
:103CC0005BAF186058E7B8F1000FD0D04446B0E7BA
:103CD000DCC40720A1510200CF510200ECC4072030
:103CE0000152020024520200535202007852020094
:103CF000835202008D520200B1520200876C020012
:103D000061620200F0C40720413A0100E65102005E
:103D10003F52020010B5044638B1082005F08EFB72
:103D2000024B04601A681860426010BDDCC40720B2
:103D30000B4B10B518700846FFF714FF044658B92E
:103D400001460848FFF746FEFDF702FC21460648FB
:103D5000BDE81040FFF758BE00210448F8E700BF57
:103D6000E0C407202C510200475102006B510200B1
:103D700070B50B4D4FF47A7605600025456085607F
:103D8000056145618561C5614EF660254162049912
:103D9000C66005628162C26280F8303070BD00BFCB
:103DA00014510200044B1A6890423ABF5B6853F802
:103DB00020000020704700BFE4C4072010B5012395
:103DC000044623700023002AD4BF1A4602F1FF32B2
:103DD000A1600846E3602361626000210AF0CEFA28
:103DE000204610BD38B50446806818B123780BB959
:103DF0000AF068FAE5682DB12846FFF7F3FF284678
:103E000005F020FB204638BD80680CF03DB84068C6
:103E10007047002283681A7070470EB403B503AA76
:103E200052F8041B806801920DF070FA02B05DF840
:103E300004EB03B070470CB4F7B5002408AB02AD37
:103E400053F8047B45F8044D2A4680680E460093DB
:103E50000CF0F3FE78B13B1B002B0CDD009B1A1D10
:103E60001B68009203B118602A46314600200CF00E
:103E7000E4FE0134EEE7204603B0BDE8F04002B0B6
:103E8000704708B50B46816818460BF0EBFFB0FA97
:103E900080F0400908BD08B580680BF0A8FFB0FAB3
:103EA00080F0400908BD2DE9F74F0F788A46A7B387
:103EB0004FF0FF35866833788BB333787BB3384661
:103EC0000CF07AFF014630460BF0BEFF38B9384699
:103ED0000CF07FFF014630460BF0B6FFE8B1044618
:103EE000851B0AF10108461C14F8010FC14688B170
:103EF00098F800B008F10108BBF1000F0AD00CF0EF
:103F00005BFF019058460CF057FF019B8342EBD0BA
:103F10004FF0FF3599F80030CEE74FF0FF352846D7
:103F200003B0BDE8F08F08B5FFF7BDFF013018BF43
:103F3000012008BD10B5846820460CF00EF808B1C9
:103F4000001B10BD4FF0FF3010BD70B50446084691
:103F50000D460BF099FF06462046FFF755FF8642B7
:103F600008DC32462946A0680BF0BDFFB0FA80F0AD
:103F7000400970BD002070BD70B5054608460C466E
:103F80000BF082FF06462846FFF73EFF864208DC1C
:103F90003246A96820460BF07FFFB0FA80F0400956
:103FA00070BD002070BDF8B5044608460E461746A1
:103FB0000BF06AFF05462046FFF726FF85420CDC22
:103FC000A368314620465D5DFFF7D6FF30B1BD42A4
:103FD00004D0B5FA85F04009F8BD0020F8BD38B529
:103FE0000C460546FFF710FF002C024609DDA042F3
:103FF00007DBA868121B013201190AF0A5F901209C
:1040000038BD002038BD38B50C460546FFF7FCFE2C
:104010000023A042A1BFAA68001B13540120B8BF0F
:10402000184638BD70B50D4606461446FFF7ECFE3F
:10403000002D11DBA8420FDD002C0DDD421B944248
:10404000A8BF1446B068121B2C4401190132284441
:104050000AF07AF9012070BD002070BD70B50546E8
:104060000E46FFF767FF431C044609D030460BF0AD
:104070000BFF214602462846BDE87040FFF7D2BF3D
:10408000002070BDF8B585680F462B460024591BEB
:1040900013F8016B3EB1BC4203D09642F7D1013414
:1040A000F5E7FFF79CFF201C18BF0120F8BDF8B50D
:1040B00006460D46FFF7A8FE00240746BC420EDA6E
:1040C00028460BF0E1FE2B465A1B904207DDB168F3
:1040D00013F8012B095D9142F6D10134EEE72CB1C2
:1040E00021463046BDE8F840FFF779BFF8BDF8B586
:1040F000054608460C460BF0C7FE07462846FFF764
:1041000083FE0026013800280DDB23461A1B974248
:1041100009DDAA6813F801EB1118125C7245F5D19C
:104120000E700138EFE7F8BDFFF7ABBE806870474F
:10413000806809F038BB38B50C460546FFF764FEC9
:10414000A042A868C8BF001938BD037870B50546FD
:10415000FBB9B1B10131102491FBF4F4AE68013424
:1041600024016C607EB920460AF0A4F8A86018B15A
:10417000224631460AF002F9A868003018BF012033
:1041800070BD0421E7E7611C30460BF081FBA8609D
:10419000F2E7002070BD0022027042608260C260BF
:1041A0000261FFF7D2BF10B50446FFF7F4FF2046C7
:1041B00010BD43688B4201DAFFF7C7BF012070478B
:1041C0000EB4F3B50646002407AB53F8047B009306
:1041D000B06880B17568009B01353A462946019365
:1041E0000DF062F88542044605DC411C3046FFF7BD
:1041F000E0FF0028ECD1204602B0BDE8F04003B05B
:10420000704738B505460C46FFF7FEFD6B68211870
:10421000994205DD2846BDE838402031FFF795BFBB
:10422000012038BD70B5054608460E460BF02CFE41
:1042300001462846FFF7E5FF044618B13146A86855
:104240000BF0F3FD204670BD002307B5ADF8043038
:1042500002AB03F8041D1946FFF7E4FF03B05DF855
:1042600004FB70B5044608460D460BF00DFE63686E
:10427000014698420DDD2046FFF767FF064640B92C
:1042800062682946A0680BF040FEA2686368D654B5
:1042900070BD2946A068BDE870400BF0EDBDFFF78A
:1042A000E0BF70B50646FCF74DF9841941F10005F1
:1042B000FCF748F9A94208BFA042F9D370BD08B580
:1042C000FDF7D6FC831E5842584108BD10B5044680
:1042D000FFF7F5FF20B12046BDE81040FDF7B2BA68
:1042E0004FF47A706043BDE81040FFF7DABF2DE964
:1042F000F34100240746904601940D4629B120B1B0
:104300007868FEF7B9FF844202D302B0BDE8F081BD
:1043100001AA21467868FEF7CEFF78B1C3688668A7
:104320005E43B8F1000F06D02B684168324608EBB7
:10433000030009F0FEFF2B681E442E600134DFE706
:104340002DE9F74300248846174601940646C0B17C
:104350007068FEF791FF844213D201AA214670686B
:10436000FEF7A9FF90B1C3688568D7F800905D4358
:1043700041682A4608EB090009F0CCFF20B1002370
:104380003B6003B0BDE8F0834D443D600134DFE79E
:1043900007B5002202A941F8042DFFF7A8FF0198F4
:1043A00003B05DF804FB07B5002202AB43F8042D0F
:1043B0000A461946FFF79BFF019803B05DF804FB1E
:1043C000002307B502AA42F8043DFFF7B9FF0198A0
:1043D000003018BF012003B05DF804FB10B50C4697
:1043E00011461A46A047012010BD08B500680BF021
:1043F00039FD003018BF012008BDFFFF07B50023BD
:1044000030B102460448009304490068FEF769FF92
:1044100003B05DF804FB00BFF4C40720EB430100C8
:10442000F8B5064610B900242046F8BD0378002BE5
:10443000F9D0154D2B6813B9FEF714FF28603046EC
:10444000FFF7DCFF07460028EDD1082009F032FF16
:1044500004460028E7D080E8C000FEF703FF606054
:1044600018B9204609F02EFFDDE728682146FEF73F
:1044700006FF05460028D7D1606809F023FF2046D3
:1044800009F020FF2C46CFE7F4C4072007B50B4600
:1044900030B100920246044804490068FEF737FF35
:1044A00003B05DF804FB00BFF4C40720DD43010046
:1044B0002DE9F0430646C1B0154698460C46002942
:1044C00050D0114647680068A04729462648A047B3
:1044D000B268264968460BF0F7FB29466846A047B4
:1044E000F268224968460BF0EFFB29466846A04770
:1044F0001F49327C68460BF0E7FB29466846A04717
:10450000B8F1000F0FD069464FF48072304600F0CA
:10451000F9FA29466846A04716482946A0470120CF
:1045200041B0BDE8F0833A78134968460BF0CCFB04
:1045300029466846A047B368F668DFF840905E43B6
:1045400007F101080136A6EB08033B44012BE3D930
:10455000494618F8012B68460BF0B6FB2946684619
:10456000A047F0E70846DBE75B6302009D530200CB
:10457000A25302003F650200A7530200A6530200A7
:1045800070B50D4604460BF07FFC2B460246012118
:104590002046BDE8704009F0EFBCFFFFF0B50C46C7
:1045A00087B017461D46064648B341B31022002186
:1045B00002A809F0E3FE7068FEF75EFE11490246AC
:1045C00002A80BF081FB29460F48A0472946306816
:1045D000A04729460D48A047294602A8A0470097B2
:1045E0002B4622460A497068FEF791FE2946094883
:1045F000A04729463068A04729460748A04707B08A
:10460000F0BD00BF375D0200AC5302005B630200E7
:10461000B1440100B35302003F6502004B688A6851
:104620000968FFF7BBBFFFFF1FB50190029103921E
:1046300001A900220248FFF729FF05B05DF804FB3D
:104640001D4601000B4619B100220249FFF7A6BF23
:10465000704700BF814501002DE9F04FC9B008AE99
:10466000054680220021304609F088FE0024DFF84C
:104670009CA12A467F21304609F064FA18B92046E9
:1046800049B0BDE8F08F604930460BF066FC8642C9
:10469000EFD13A210BF0D8FB00F101083A21404656
:1046A0000BF0D2FB07460028E3D0002303704046FE
:1046B000FFF7A4FE01900028DBD0781C09F073F806
:1046C00080460DF1A009B8F1000F01D10124D0E717
:1046D000002480220021484609F050FE2746284643
:1046E00009F0C6F9431C19D03A2819D10137032F14
:1046F00016DD002407AA5146484607940CF09DFA9F
:1047000007AA5146074620460CF097FA07AA8346A7
:10471000514620460CF091FA04463FB90024AEE71A
:1047200009F8040001347F2CD9D1E2E7BBF1000F76
:10473000F4D00028F2D0584609F035F883462046D8
:1047400009F031F8394600FB0BFB019800F0B8F88E
:1047500080B18268C36853439B450BD1476807EB20
:104760000B034FF0FF3B0393039B9F4205D1BBF12B
:104770000A0FD3D108F1FF38A5E7284609F078F9E8
:104780000446284609F074F90290284609F070F9A9
:10479000B0F1FF3F8346C1D009F01AFDE3B25A1CC5
:1047A000815C480712D5303C09F012FD9DF80830B5
:1047B000E4B25A1C815C24014907E4B215D5029B7E
:1047C000303B1C44E4B207F8014BCDE7059304925B
:1047D00009F0FEFC049A059B825C02F00302012AA8
:1047E00008BF2033A3F15704DEE70492029309F0D7
:1047F000EFFC049A029B825C02F00302012A08BFCC
:104800002033573BDDE700BFAC5302005B6302007F
:1048100008B542684B689A4207D0096800680BF0F7
:1048200021FB003018BF012008BD002008BD08B5DD
:104830000B46016818460BF015FB003018BF01202D
:1048400008BDFFFF2DE9F743894690461F46BDF896
:104850002850064620B90025284603B0BDE8F0835D
:104860000029F8D0002AF6D0002BF4D0142009F04B
:1048700021FD04460028EED09DF82C30002D037455
:1048800008BF01250023C560C0F80090C0F804806F
:1048900087600093024609497068FEF738FD0546B7
:1048A00018B9204609F00EFDD6E721467068FEF7DC
:1048B000E6FC05460028CFD1F3E700BF1148010010
:1048C00013B50A4640B149B10C78002344B10093B6
:1048D00004494068FEF705FD02B010BD0846FBE73D
:1048E0002046F9E72F48010037B50D46FFF786FD52
:1048F00048B155B12C7800234CB100932A460549A4
:104900004068FEF7EEFC03B030BD2846FBE72046CA
:10491000F9E700BF2F4801002DE9F3471446FFF7E0
:10492000E3FF8046002800F0DF8098F81030043064
:10493000013B85C807FB0207072B00F2D580DFE8A3
:1049400003F0224B70ABD395D30405464FF000091A
:10495000674EBD4228D2214630460BF0FEFA221A9D
:10496000D8F8043050425041187023461A781C463B
:10497000013312B12C2AF9D11C46D8F808304FF077
:1049800001091D44E5E700230646994602ADDFF81C
:1049900064A145F8043DBE4206D22A46514620464F
:1049A0000BF0B6F9012803D0484602B0BDE8F08705
:1049B000D8F808202946304609F0BBFC23461A786F
:1049C0001C46013312B12C2AF9D11C46D8F8083004
:1049D0004FF001091E44DEE700230546994602AE6A
:1049E000DFF814A146F8043DBD42DDD232465146FF
:1049F00020460BF08DF90128D6D1D8F80820314691
:104A0000284609F096FC23461A781C46013312B159
:104A10002C2AF9D11C46D8F808304FF001091D4462
:104A2000E2E74FF00009054602AEDFF8D0A006F835
:104A3000049DBD42B8D23246514620460BF068F97B
:104A40000128B1D1D8F808203146284609F071FC78
:104A500023461A781C46013312B12C2AF9D11C4680
:104A6000D8F808304FF001091D44E2E7002109F0B1
:104A700085FC20460BF008FAD8F80830D8F8045026
:104A800098420246214628BF03F1FF32284609F02A
:104A900050FC4FF0010987E7002305464FF000095D
:104AA00002AEDFF85CA046F8043DBD42BFF47CAF27
:104AB0003246514620460BF02BF901287FF474AFA3
:104AC000D8F808203146284609F033FC23461A78E6
:104AD0001C46013312B12C2AF9D11C46D8F80830F3
:104AE0004FF001091D44E0E74FF000095CE700BF0B
:104AF0006F540200DE5302001654020035540200C7
:104B000062540200037C2DE9F74F013B05460C4639
:104B10001646072B00F2F781DFE813F008008B0040
:104B20000D017801D40147012A014E018368012B50
:104B300020D14768CA4A97F90030314620460BF029
:104B40008FF8DFF85493C7F1010807EB0803EA6810
:104B50009BB2934203D3012003B0BDE8F08F2046FF
:104B60000BF092F917F9013F311A4A4620440BF035
:104B700077F8EAE7022B1BD1D0F80480B94AB8F9DC
:104B80000030314620460BF06BF80127DFF8089320
:104B9000EB689F42DFD220460BF076F90137311ADD
:104BA00038F9023F4A4620440BF05AF8BFB2EFE70B
:104BB000042B1BD1D0F80480AB4AD8F80030314622
:104BC00020460BF04DF80127DFF8D092EB689F42AA
:104BD000C1D220460BF058F90137311A58F8043F7A
:104BE0004A4620440BF03CF8BFB2EFE7082B40F0F8
:104BF0008A81D0F804803146D8E900232046CDE9E7
:104C000000239A4A0BF02CF80127DFF89492EB6806
:104C10009F42A0D220460BF037F9F8E90223311A5F
:104C2000CDE9002320444A4601370BF019F8BFB202
:104C3000EDE78368012B1CD147688D4A3B783146EC
:104C400020460BF00DF8DFF85C92C7F1010807EB86
:104C50000803EA689BB29342BFF47DAF20460BF095
:104C600013F917F8013F311A4A4620440AF0F8FFB9
:104C7000EDE7022B1CD1D0F804807E4AB8F8003052
:104C8000314620460AF0ECFF0127DFF81892EB6866
:104C90009F42BFF460AF20460BF0F6F80137311A9F
:104CA00038F8023F4A4620440AF0DAFFBFB2EEE786
:104CB000042B1CD1D0F804806F4AD8F8003031465C
:104CC00020460AF0CDFF0127DFF8DC91EB689F4218
:104CD000BFF441AF20460BF0D7F80137311A58F82E
:104CE000043F4A4620440AF0BBFFBFB2EEE7082B60
:104CF00040F00981D0F804803146D8E900232046ED
:104D0000CDE900235D4A0AF0ABFF0127DFF89C9153
:104D1000EB689F42BFF41FAF20460BF0B5F8F8E9EF
:104D20000223311ACDE9002320444A4601370AF014
:104D300097FFBFB2ECE74768514A3B7831462046BF
:104D40000AF08EFFDFF86891C7F1010807EB08034E
:104D5000EA689BB29342BFF4FEAE20460BF094F893
:104D600017F8013F311A4A4620440AF079FFEDE76F
:104D70004768444A3B78314620460AF071FFDFF825
:104D80003491C7F1010807EB0803EA689BB293422C
:104D9000BFF4E1AE20460BF077F817F8013F311A67
:104DA0004A4620440AF05CFFEDE74368364A314644
:104DB00020460AF055FFCEE6D0F804A0334F9AF80B
:104DC0000030DFF8F480324A002B14BF3B464346E4
:104DD000314620460AF044FFD146DFF8E0B0CAF180
:104DE00001034B44EA689BB29342BFF4B4AE204641
:104DF0000BF04AF819F8013F311A002B14BF3B465B
:104E000043465A4620440AF02BFFE8E7D0F80490C6
:104E10000127D9F8000007F0CFFF1E4ACDE90001B5
:104E2000314620460AF01CFFDFF894A0EB689F4251
:104E3000BFF491AE20460BF027F8A6EB000B04EB75
:104E4000000859F8040F07F0B7FF0137CDE900015A
:104E50005246594640460AF003FFBFB2E6E700BF9C
:104E6000BE530200CA530200D3530200E2530200B1
:104E7000F3530200005402000A5402001A540200C4
:104E80002C54020038540200425402006F540200B5
:104E90004C54020058540200C6530200DD53020075
:104EA000ED530200FC530200155402002654020088
:104EB0003454020035540200B85302005454020026
:104EC00061540200D0F804803146D8E9002320461E
:104ED000CDE900230D4A0AF0C3FE0127DFF8309028
:104EE000EB689F42BFF437AE20460AF0CDFFF8E9E9
:104EF0000223311ACDE9002320444A4601370AF043
:104F0000AFFEBFB2ECE7002026E600BF655402000A
:104F10006154020038B514461D46FFF7E5FC28B180
:104F20002A462146BDE83840FFF7ECBD38BD10B534
:104F30000446FDF71BFF1CB1012C08D0042402E03D
:104F400000F0E2FC0446FDF729FF204610BD00F00A
:104F500073F9F7E728B1012801D00420704700F069
:104F600021BA7047F8B507460C4615461E46FDF7B0
:104F7000FDFE1FB1012F0BD0042405E03246294667
:104F8000204600F00DFD0446FDF708FF2046F8BD61
:104F900032462946204600F00DFAF4E7F8B50746F8
:104FA0000C4615461E46FDF7E1FE1FB1012F0BD042
:104FB000042405E032462946204600F019FD044647
:104FC000FDF7ECFE2046F8BD32462946204600F0AB
:104FD0003DFAF4E770B506460C461546FDF7C6FEE9
:104FE0001EB1012E0AD0042404E02946204600F018
:104FF00025FD0446FDF7D2FE204670BD2946204619
:1050000000F07EFAF5E708B5FBF79CFA4FF47A72E8
:10501000002308F039FA08BD10B50446FBF718FC68
:10502000074BB0FBF3F00223B0FBF3F2944202D340
:10503000044A136110BDB3F5807FF9D00233F3E762
:1050400040420F0000000340034B9860DA68D2062C
:10505000FCD49868C0B270470000034070B5FFF7F9
:10506000D2FF00F5FA74FF20FFF7EEFF0025FF20C6
:10507000FFF7EAFFFF28064605D0FFF7C4FFA94265
:1050800008BFA042F3D3304670BDFFFF38B54FF0E4
:105090000075054CE561FFF7E1FF044AA56113784F
:1050A00043F00103137038BD20C00920CDC0072094
:1050B0002DE9704306460D46FFF7A5FF6430804694
:1050C0004FF00009FF20FFF7BFFFFF2808D1FFF7CF
:1050D0009AFF494508BF4045F4D30020BDE87083DE
:1050E000FE28FAD1102D0ED900224FF4007130465F
:1050F000FDF7DCFDFF20FFF7A7FFFF20FFF7A4FF70
:105100000120BDE87083341D0435FF20FFF79CFFAC
:1051100004F8040CFF20FFF797FF04F8030CFF20AE
:10512000FFF792FF04F8020CFF20FFF78DFF043415
:1051300004F8050C2B1BDE42E7D1DBE770B5064611
:105140000D46FFF78BFFFF28044619D12846FFF7CD
:105150007BFFFD2D16D022464FF400713046FDF73F
:10516000A5FD2046FFF770FF2046FFF76DFF2046A4
:10517000FFF76AFF00F01F00431F5842584170BDFF
:10518000002070BD012070BD020638B504460D46F2
:1051900007D500217720FFF7F7FF012836D804F064
:1051A0007F044FF000721A4B9A61DA61FFF756FFE5
:1051B000FF282AD12046FFF747FF280EFFF744FFBC
:1051C000C5F30740FFF740FFC5F30720FFF73CFF9B
:1051D000E8B2FFF739FF402C15D0482C14BF01204E
:1051E0008720FFF731FF4C2C02D1FF20FFF72CFF67
:1051F0000A21FF20FFF728FF030607D5013911F028
:10520000FF01F6D138BD9520EBE7FF2038BD00BF88
:1052100020C00920064A074913784969DBB24901D1
:1052200054BF03F0FD0343F003031370704700BF46
:10523000CDC0072020C009202DE9F743FFF7EAFF82
:10524000554B1A781E4612F0020F04D01878C0B2DF
:1052500003B0BDE8F0830120FFF7DEFE0A24FF2043
:10526000013CFFF7F1FE14F0FF04F8D14FF000739A
:105270004A4F2146FB614020FFF786FF0128804608
:1052800013D04FF00008464B83F800804FF00073B6
:10529000BB61B8F1000F7BD03378182003F0FE0318
:1052A0003370FFF7B9FE3078D1E7FFF7ACFE4FF46B
:1052B000D57100F57A754820FFF766FF012840D1C7
:1052C0000DF10408FF20FFF7BFFE08F804000134C9
:1052D000042CF7D19DF80630012BD2D19DF8073070
:1052E000AA2BCED12C460025FFF78DFEA94208BF80
:1052F000A0421ED3FFF787FEA94208BFA042C0D23A
:1053000000217A20FFF740FF0028BAD10146FF2094
:10531000FFF79AFE08F8010001310429F7D19DF842
:10532000043013F0400F14BF4FF00C084FF0040886
:10533000A9E74FF08041E920FFF726FF0028D3D1ED
:10534000D8E72146E920FFF71FFF02282C4636BF89
:105350004FF0E9094FF041094FF002080025FFF72F
:1053600052FEA94208BFA0420BD3FFF74CFEA94250
:1053700008BFA04287D34FF400715020FFF704FF0D
:1053800081E700214846FFF7FFFE0028E7D1ECE760
:10539000FFF77CFE87E700BFCDC0072020C00920B3
:1053A000F8C4072008B5FFF735FF014B187808BD92
:1053B000CDC0072070B5144606460846FFF72AFF01
:1053C000002C38D01E4B1B78DA0736D44FF0007211
:1053D0001C4DEA611C4A1278130758BF4002012C89
:1053E000014612D15120FFF7CFFE38B94FF40071BA
:1053F0003046FFF75DFEB0FA80F464094FF00073A9
:10540000201CAB6118BF012070BD5220FFF7BCFE0D
:105410000028F3D14FF400713046FFF749FE28B160
:10542000013C14F0FF0406F50076F3D100214C2076
:10543000FFF7AAFEE2E7042070BD032070BD00BFA5
:10544000CDC0072020C00920F8C40720F8B51446B5
:1054500006460F46FFF7DEFE002C44D0254B1A7897
:10546000D10742D41B785A0741D44FF00072224D25
:10547000EA61224A1278130758BF7F02012C12D129
:1054800039465820FFF780FE58BBFE213046FFF713
:1054900055FEB0FA80F464094FF00073201CAB6134
:1054A00018BF0120F8BD12F0060F03D02146D72007
:1054B000FFF76AFE39465920FFF766FE0028EBD158
:1054C000FC213046FFF73AFE28B1013C14F0FF04FE
:1054D00006F50076F4D1FD210020FFF72FFE00280D
:1054E000DAD10124D8E70420F8BD0320F8BD02205A
:1054F000F8BD00BFCDC0072020C00920F8C4072098
:105500007FB50D46FFF786FE05281AD12B78012BB3
:1055100015D005D3022B0BD00424204604B070BD57
:105520007B4B5C6914F0806409D1FFF7AFFDF4E7B1
:10553000774B5B6983F08063C3F380636B700024F7
:10554000EBE7744B1B78DB0700F1E0800E2800F2DC
:10555000DB80DFE800F00817555AD9D9D9D9D9D955
:10556000A7ABBABDCD004FF00072694BDA61FFF70F
:1055700075FDB0F1FF0418BF01244FF00072644BB9
:105580009A61CAE700214920FFF7FEFD044608B1F1
:105590000124F2E710216846FFF78AFD0028F7D0C2
:1055A0009DF800309DF808109B09012B9DF80930EB
:1055B00006D15A1C02EB012292B292022A60DCE769
:1055C0009DF807209DF80A00920002EB91129DF8C9
:1055D00006100132890201F440610A449DF8051069
:1055E0005B0001F00F0101EBD011023103F0060363
:1055F0000B44DBB292B2093B02FA03F32B60BCE727
:105600004FF400732B800024B7E7434E317811F03C
:1056100004011CD00021CD20FFF7B6FD0028B7D132
:10562000FF20FFF711FD10216846FFF741FD00281C
:10563000AED03024FF20FFF707FD601E10F0FF04FE
:10564000F8D19DF80A301A0910239340D6E7492073
:10565000FFF79AFD044600289AD110216846FFF70B
:1056600027FD002894D030789DF80A3010F0020011
:105670009DF80B100AD05B009DF80D2003F07E030F
:1056800003EBD11392090133013ADEE7CA0002F0BD
:105690001802C3F3840302EB5112013302FB0333FC
:1056A0002B60B0E71C4B1B782B70ACE70021492026
:1056B000FFF76AFD00287FF46BAF10212846FFF743
:1056C000F7FCB0FA80F4640957E700214A20EFE7BD
:1056D00000217A20FFF758FD00287FF459AF291DDB
:1056E000FF20FFF7B1FC05F8010B8D42F8D18AE7E6
:1056F0000021CD20FFF748FD00287FF449AFFF20AF
:10570000FFF7A2FC4021D9E7042436E7032404E78D
:1057100020C00920CDC00720F8C40720054B1B7806
:10572000253BDBB2032B9ABF034A52F8230000202B
:10573000704700BF00C507207C5402001B4B2DE9B9
:10574000F0411D880646B5F5007F0F46144603D18B
:105750002A46214638460BE0B5F5807F0CD12A4613
:1057600021463846B0472A4604F5807107F5807017
:105770003346BDE8F0411847B5F5047F04D1510A1E
:1057800089024FF40072E5E7B5F5847F0BD1140A66
:1057900061024FF480723846B0474FF48072013492
:1057A0006102B818E4E7BDE8F08100BF02C5072038
:1057B00010B5294B00294DDD0729027829DD9A60B3
:1057C000427808399A6082789A60C2789A60027941
:1057D0009A6042799A6082799A60C47900F10802ED
:1057E0009C609C696407FCD59C6804709C6844704C
:1057F0009C6884709C68C470DC68E406FCD49C6877
:1058000004719C6844719C6884719C68C4711046E2
:10581000D0E7032914DD9A60427804399A608278CF
:105820009A60C478021D9C60DC68E406FCD49C6825
:1058300004709C6844709C6884709C68C470E6E73F
:10584000441C9A600139DA68D206FCD49A68027066
:105850002046AFE710BD00BF0000034007B50B0CAA
:105860008DF805308DF807100B0A04218DF804001F
:105870000DEB01008DF80630FFF79AFF03B05DF8DD
:1058800004FBFFFFF7B5032340250E4C1746E561E7
:105890008DF804300B0C8DF805308DF807100B0ACD
:1058A000042106460DEB01008DF80630FFF780FF5E
:1058B000002239463046FDF7F9F9A561A561A561D9
:1058C00003B0F0BD00C0092040220D4BDA61D722A1
:1058D0000C4B9A60DA68D206FCD40A4A9B68FF2116
:1058E00013469160D868C006FCD4986810F0800F09
:1058F000F7D04022024BC0B29A619A619A61704718
:1059000000C0092000000340F7B5FFF7DDFF0023CA
:1059100040271E4C1E4E23801E4BF7611A889B7831
:105920000546032101A8ADF804208DF80630FFF7E5
:105930003FFF9DF805209DF806301F2AB761B7612B
:10594000B76115D1A3F12502032A11D8124A252BDC
:10595000137005F0010011D1002814BF4FF48073BB
:105960004FF484732380FFF7D9FE0C4B400A186074
:105970002088B0FA80F0400903B0F0BD002814BFC1
:105980004FF400734FF40473ECE700BF02C5072027
:1059900000C009207454020000C50720FCC4072081
:1059A0002DE9F0418B1817460F4A013B1268044657
:1059B000934212D84D020026FFF786FFDFF82C80B5
:1059C0002D1BBE4204EB05020ADA21464046FFF7D2
:1059D000B5FE04F500740136F3E70120BDE8F0815F
:1059E0000020BDE8F08100BFFCC4072085580100FD
:1059F0008B182DE9F04117460E4A013B126893427D
:105A000011D804460026DFF83080C0EB4125BE42A5
:105A100004EB05020ADA21464046FFF78FFE04F543
:105A200000740136F3E70120BDE8F0810020BDE8F5
:105A3000F08100BFFCC407201D5B010008B50728EA
:105A400005D8DFE800F0060A0F130808080804204C
:105A500008BDFFF739FF002008BDFFF75FFE400AD1
:105A60000860F8E74FF400730B80F4E701230B6044
:105A7000F1E7FFFF70B590B003466A466E4600F14D
:105A80004005144618685968083303C4AB422246DF
:105A9000F7D14024074D0021EC619B20FFF7DEFE8B
:105AA00021463046FFF784FEAC61AC61AC6110B0BA
:105AB00070BD00BF00C0092070B540240646074DE8
:105AC00000217720EC61FFF7C9FE21463046FFF741
:105AD0006FFEAC61AC61AC6170BD00BF00C009205D
