:020000021000EC
:10000000E03F082095010100FB000100E100010034
:10001000090101001901010029010100000000008F
:100020000000000000000000000000007158010006
:100030003901010000000000D15801005901010000
:10004000416E0100416E0100416E0100416E0100F0
:10005000416E0100416E0100416E0100416E0100E0
:10006000416E0100416E0100416E0100416E0100D0
:10007000416E0100416E0100416E0100416E0100C0
:10008000416E0100416E0100416E0100416E0100B0
:10009000416E0100416E0100416E0100416E0100A0
:1000A000416E0100416E0100416E0100416E010090
:1000B000416E0100416E0100416E0100416E010080
:1000C000416E0100416E0100416E0100207C020082
:1000D00000C007200003000000C30720F004000058
:1000E00004207146084203D0EFF3098006F0C6BE33
:1000F000EFF3088006F0C2BE704708B5014809F06A
:1001000016FAFEE7A654020008B5024809F00FFAF5
:10011000FEE700BFB154020008B5024809F007FA33
:10012000FEE700BFBC54020008B5024809F0FFF921
:10013000FEE700BFC754020008B5024809F0F7F90E
:10014000FEE700BFD454020008B5024809F0EFF9F9
:10015000FEE700BFE254020008B506F05DFA05F0C4
:10016000D9FBBDE8084006F06BBA0B4610B5401A43
:100170005C1AA24203D9C45843F8044BF8E710BDF7
:100180000346002210B51C1AA14202D943F8042BE1
:10019000F9E710BD154807F061F8144807F061F859
:1001A000134C144DAC4209D3134DAC420ED254F84B
:1001B000080B54F8041CFFF7E3FFF6E794E803008C
:1001C0000C3454F8042CFFF7D0FFEBE70DF0C2FE1F
:1001D00006F0E6FE0AF058F909F06CFC4FF4164000
:1001E00006F078FE054809F0A2F9FEE7E03F082096
:1001F000CC000100D8000100E0000100F65402002C
:100200002DE9F84344790546894690461E46089FE5
:100210001CB100242046BDE8F883002BF9D006F07D
:100220002BF902282CD020222B682F61AE61AC75EF
:1002300085F8149085F815801A6006F065FD4FF476
:100240007A7200230DF000F910F57A7641F100077B
:100250000023E8681A46194606F046FC20B1AC7D3A
:10026000B4FA84F46409D5E706F04EFD4FF47A72CF
:1002700000230DF0E9F88F4208BF8642E8D2EEE78E
:1002800023464FF47A722146A86806F02DFC002818
:10029000BFD0234622462146E86806F025FC2022EE
:1002A0002B68AC7585F8149085F815802F61AE61C8
:1002B00021461A60E86823464FF47A7206F014FC6F
:1002C00018B1AC7DB4FA84F464090023A8681A4616
:1002D000194606F001FB9DE741F00101FFF790BFD1
:1002E0001FB5002404AB03F8014D01240094FFF76F
:1002F000F3FF9DF80F0004B010BD01F0FE01FFF701
:100300007FBF1FB504AC04F8013D012300932346D1
:10031000FFF7F3FF04B010BD1FB5002204AB03F8D4
:10032000012D0092FFF7D8FF05B05DF804FBFFFF39
:1003300038B50025044601604571012006F04EFBEA
:100340000322A0602946012006F0A4FA2368094A86
:10035000E060934203D10A232371204638BD064A48
:10036000934201D10B23F7E7044A93420CBF0C23BD
:100370006323F1E700C0014000C0054000000A40CF
:1003800090F9043070B50B2B05460C46164634D058
:100390000C2B35D00A2B36D10121072006F020FF87
:1003A000B6F57A7F98BF4FF47A714FF06C0294BF24
:1003B000714316492B68B4FBF1F19A61282264203D
:1003C00049084A43B2FBF0F21A613C225143002231
:1003D000B1FBF0F15961DA601A625A629A62402206
:1003E00001201A6095F90430094A590903F01F03E6
:1003F00000FA03F342F8213070BD01211320CDE74C
:1004000001211A20CAE7002070BD00BFA0860100AC
:1004100000E100E0036830B55968024628294AD057
:100420000BD810292CD0182932D008290AD1027DE6
:1004300002F0FE029A60996128E0402959D00DD857
:1004400038296DD059689175202199611021196062
:10045000082199611968C906FCD425E0502951D0BA
:100460005829EFD181699B680B702021036899613D
:1004700010211960082199611968C806FCD413E09D
:10048000027D42F001029A6008229A61002030BD8C
:1004900020201469986108215CB9986110201860C7
:1004A00099611968C906FCD4137DDD0715D50120B3
:1004B00030BD527DBEE7007D10F0010002D0202249
:1004C0001A60E1E7116951B920229A6110221A607D
:1004D00008229A611A68D406FCD4022030BD9469BF
:1004E000013914F8015B9D609461116108229A61E1
:1004F00030BD202102699961012A4FF00402DFD842
:100500009A61C1E79B68816904220B70836901339A
:1005100083610369013B012B03610368D0D1EFE7DD
:10052000017D5B6811F0010F937514BF012002205B
:1005300030BDFFFF13B50446FFF76CFF80B1002309
:1005400002A941F8043DE06806F09AFA019B3BB12C
:100550004FF08052034B1A60BFF34F8FBFF36F8F82
:1005600002B010BD04ED00E00120704770B50546F3
:10057000164609B9002070BD4C1E14F8011F39B190
:100580002B6832465B68284698470028F5D1F1E78A
:10059000012070BD38B504461546FFF7E7FF2A462F
:1005A0002046BDE838400149FFF7E0BF684A020035
:1005B0002DE9F743002407460D469046994602AEC2
:1005C00006F8014D3B684A461B6831463846984755
:1005D00078B19DF807200D2A03D00A2A1CBF2A7083
:1005E00001350134444509DA0A2AEBD100232B7086
:1005F00001E0002CFAD103B0BDE8F0830020F5E75C
:100600000EB433B5044605F037FF022806D10023A7
:100610004FF0FF321946E06806F066FA06AB009329
:10062000009B059A21896068019310F01DFE2389C3
:10063000054698420ADB20F00F01103189B2218172
:1006400060680FF005F960600028E9D14FF0FF32D3
:1006500061682046FFF78AFF05F00EFF022805D1EA
:100660000023E0681A46194606F036F9284602B01B
:10067000BDE8304003B07047064B10B5036000235F
:100680000446436003810374012006F0A7F9E0608B
:10069000204610BD884A0200044B10B50446036092
:1006A000406808B10DF0EEFD204610BD884A0200FA
:1006B00037B5044615468DF8071005F0DDFE022813
:1006C00009D063699DF807201A701A7D5206FCD57F
:1006D000012003B030BD00232A460DF10701E06977
:1006E00006F0FAF80028F4D063691B7D5B06EFD5AD
:1006F00000230DF107011A46E06906F0F5F900281C
:10070000E6D063699DF807201A70E1E710B504464A
:10071000024B0360FFF7C0FF204610BDBC4A020039
:1007200010B50446FFF7F2FF204607F069F92046AE
:1007300010BD10B5044605F09FFE022807D1E06900
:1007400006F0A0FA18B1012005F080FCF7E70120BF
:1007500010BDF8B5064614460F4609B90020F8BD8D
:100760008369002BFAD005F087FE022809D1002307
:1007700022463946B06906F0B7F9003018BF0120AB
:10078000F8BD06F0C1FA4FF47A7200230CF05CFE5B
:1007900000250444002339461A46B06906F0A4F93E
:1007A00058B906F0B1FA4FF47A7200230CF04CFEFF
:1007B0008D4208BF8442EDD2D0E70120F8BDFFFF93
:1007C000802310B5446909012373006AB0FBF1F07E
:1007D0000CF0B0FA064B00220CF070F90CF020FB84
:1007E00080B2030A23710323C0B22070237310BDAB
:1007F0000000E03F002373B5426901938DF8033098
:100800009368044603F00E03042B21D00C2B1FD059
:10081000022B3FD1C06906F03EFAE38C984203D91F
:10082000E06906F038FAE0841026002501AA0DF1EF
:100830000301E06906F0F2F900282ED15DB34FF014
:1008400080521B4B1A60BFF34F8FBFF36F8F22E0B4
:1008500005F0D2FA0025A06263691A7DD2070ED591
:100860001B7801AA8DF803300DF103010023A06964
:1008700006F0C6F8019B002B18BF0125ECE7A06924
:1008800006F009FAA38C9842D8D9A06906F003FAB9
:10089000A084D3E7137D02B070BD63699DF8032087
:1008A0001A70019B002B18BF0125013EC6D0BDE781
:1008B00004ED00E038B504460D46FFF7DDFE064BBB
:1008C0006561236000232046A361E3612362A38462
:1008D000E384A36238BD00BFBC4A020070B516466F
:1008E0001D46254A43690446934201622FD10121E6
:1008F000032006F075FC2022204B31461A6041226D
:10090000636920461A721A7A42F006021A72FFF7D9
:1009100057FFA26942B9082D28464FF00101B8BF20
:10092000082005F0B7FFA061E2693AB904980121F7
:100930000828B8BF082005F0ADFFE0610722636911
:100940005A60A3690BB1E369A3B9002070BD0C4ADA
:10095000934205D10121182006F042FC8022CBE70A
:10096000084A9342F1D10121192006F039FC4FF4D5
:100970008072C1E7012070BD00C0004000E100E0CE
:100980000080094000C00940074A136823F0E06373
:1009900023F0FF0313600123116803FA00F041F014
:1009A000807108431060704700400340002307B582
:1009B0000D4A019352680D48C2F30B12ADF80220A4
:1009C0000DF1020101AA006806F01AF8019B3BB183
:1009D0004FF08052064B1A60BFF34F8FBFF36F8FFB
:1009E00003B05DF804FB00BF0040034004C30720D0
:1009F00004ED00E010B506F0DBFC0121C4080C207A
:100A000006F0EEFB03210C2006F004FC4FF400136B
:100A1000104A114913600223B4FBF3F0884214D842
:100A2000116841EA03231360012005F0D7FF0B4B47
:100A3000002218600221012005F02CFF4FF48002F3
:100A4000074B1860074B1A6010BD0233B3F5807F67
:100A5000E2D1E9E7004003403F5DC60000C3072044
:100A600004C3072000E100E0F7B50024072805468D
:100A7000ADF806401DD805F0FFFC0228154E1CD12C
:100A8000154F23464FF0FF322146386806F02CF808
:100A90002846FFF779FF23464FF0FF320DF106019C
:100AA000306806F021F8234622462146386805F0D2
:100AB00013FFBDF8060003B0F0BD2846FFF764FF42
:100AC00000230DF106011A46306806F00DF80028E3
:100AD000F6D0EEE704C3072000C307201FB5044685
:100AE000054B0DF1100E0FCB0EE90F000EEB840439
:100AF00054F8100C04B010BDD04A0200F7B50F46F0
:100B00000646FFF7EBFF17230124162202218DF87A
:100B100003308DF8073002AB1E448DF802208DF8AB
:100B200001108DF8004005468DF8051016F8080CE8
:100B300021468DF806208DF8044006F051FB214631
:100B400016F8040C06F066FB0023AB606C602B67A4
:100B500006F02EFC034BB0FBF3F04743EF6003B00D
:100B6000F0BD00BF40420F0070B590F853508AB0FE
:100B7000044605B9457C284604F096FA002294F80C
:100B8000523084F8522094F85420064600920121F5
:100B900004F13A02284604F0B5F8044670B1314633
:100BA00002A804F0C9FB48B19DF80C3003F0C00363
:100BB000C02B03D19DF80830AB4200D00024204662
:100BC0000AB070BD10B50446024B0360FFF764FD28
:100BD000204610BD444B020010B50446FFF7F2FF5B
:100BE000204606F00DFF204610BD10B590F852408B
:100BF000621CD2B20444172A80F8522084F83A10BA
:100C000002D903689B689847012010BD70B50E4655
:100C1000037E90F8311004469942B4BF01250025A7
:100C20000BDB1146113004F07FFB30B10023257E31
:100C300084F83130ED1A18BF01253DB194F83130F8
:100C40005A1C84F831201C44637E3370284670BDE2
:100C500070B50446FFF710FD0C4B002523602126DC
:100C60000323324684F85430294684F8535004F163
:100C700011000DF063FB3246294604F132000DF0FD
:100C80005DFB072003F00EFF204670BD444B0200C1
:100C900070B5174B0E465C69164B05461A6C1A2048
:100CA00022F470021A641A6C04F4406442F42002C4
:100CB0001A64996E41F440619966196821F47001D3
:100CC0001960196841F420011960032106F0A2FAA5
:100CD00006F06EFBB4F5406F06D13246C1082846D7
:100CE000BDE87040FFF74CBB012300206B7170BD65
:100CF00000C0092000C0024010B504460249FFF7B9
:100D000017FB204610BD00BF00000A4038B5074C55
:100D1000236833B91C2006F06FFE0546FFF7ECFF91
:100D200025602068BDE83840FFF704BC08C30720F1
:100D300070B505460E4614460CB12B6803B970BD5C
:100D40002268134208D06368984722682B6823EA18
:100D500002032B6023683360A468EDE7F8B5012433
:100D600084400F4616461D4610D079B10C200DF078
:100D700081FA58B14FF40012336880E89000836024
:100D80002B6830601C43024B2C601A60F8BD00BF1A
:100D900000E100E01FB5184C1849636868460093ED
:100DA000A3680193636A0293A36A0393144B1A68BE
:100DB000FFF7BEFF134B11491A6801A8FFF7B8FFF0
:100DC000114B12491A6802A8FFF7B2FF104B0F49E6
:100DD0001A6803A8FFF7ACFF009B0BB9019B13B186
:100DE0004FF0FF33E360029B0BB9039B13B14FF04D
:100DF000FF33E36204B010BD808002408C8002406B
:100E000010C307200CC3072018C30720AC80024082
:100E100014C3072010B414460029064A0649074B9C
:100E200018BF1346064A18BF0A46214610BCFFF7F2
:100E300095BF00BF948002400CC307209080024001
:100E400010C3072010B50A4C23681BB9012005F018
:100E5000C5FD206005F010FB022808D100232068A2
:100E60004FF0FF32BDE81040194605F03DBE10BD01
:100E70001CC3072010B505F0FFFA022808D1BDE811
:100E80001040002303481A461946006805F024BDA7
:100E900010BD00BF1CC3072008B501211D2006F0AE
:100EA0009FF90122024B1A631A6BD207FCD508BDC9
:100EB000004000504FF0FF3337B5B1F5805F01932C
:100EC0004AD2274B1C69E50748D4264C2469E4071D
:100ED00044D4254CE5686D0735D40325234CA56023
:100EE0002561234D1D60002A2FD001AC5C6041F0CC
:100EF0000044DC6000249C6041F206041C61194C33
:100F00003AB3206041F080610022E1606560A26038
:100F10004FF4086222611A6942F001021A612269E3
:100F200042F001022261104A516A41F0030151620C
:100F3000D868C0F30B000028FAD1536A23F00303EA
:100F4000536203B030BDA568C4E7586041F008445F
:100F5000CFE701AA2260D7E70120F2E70220F0E7FD
:100F6000204100500041005000000340004000506C
:100F70000800034008B5044B1B689847034A137ADE
:100F800043F00103137208BD20C3072000000B408B
:100F9000026830B5D36913F0040310D002F13003B6
:100FA00001F1100451F8045BA14243F8045BF9D14C
:100FB000438A0133438221230120536030BD184608
:100FC00030BDFFFF2DE9FF41264C450154F8058057
:100FD0006719D8F80C60D8F808303343D90716D50C
:100FE000786805F058FEFB8908F1200198424FF01F
:100FF000000388BFF88167191A46786805F000FD7C
:1010000058B3BB8A0133BB820423C8F8043040F2D2
:1010100002631E4212D06719B86805F03CFE3B8A95
:101020000022984288BF388267196946B86805F07F
:10103000F5FD18B169463846FFF7AAFFB20603D599
:1010400063199B6930469847330703D52C44E369FD
:101050003046984704B0BDE8F081BB890133BB81BD
:10106000D2E700BF00C00720084B10B5D3F8C4403A
:10107000A20402D50020FFF7A5FF630404D5BDE854
:1010800010400120FFF79EBF10BD00BF00C00F4001
:10109000F0B587B06C460F4D074695E807008DE820
:1010A000070003AE95E8070086E807000C223146EA
:1010B00020460DF00FF938B903CC3860206879600C
:1010C000B860384607B0F0BD95E8070084E807002F
:1010D000E8E700BF144002400022184B1A72027861
:1010E000C2F3050283F820204278C2F3050283F898
:1010F00024208278C2F3040283F82820C278C2F345
:10110000020283F830200279C2F3040283F82C2013
:101110004279C2F3030283F83820C179827901F061
:101120000F0142EA0122417A9A87027A01F00F0107
:1011300042EA01229A8601221A7270470040024058
:101140001FB50121092006F04BF801222F4B01A801
:101150001A72FFF79DFFBDF80A3003F62603C3F3AA
:101160000B030F2B1ED89DF8053003F03F033B2BDC
:1011700018DC9DF8043003F03F033B2B12DC9DF894
:10118000063003F01F03172B0CDCBDF80C30C3F343
:101190000B03B3F5B77F05DA9DF8093003F00F03B1
:1011A0000C2B2FDD01229DF8083001A862F3040307
:1011B0008DF808309DF8093062F3030340F2DA72CB
:1011C0008DF80930BDF80A3062F30B03ADF80A3030
:1011D0009DF807306FF302038DF807309DF8063055
:1011E0006FF304038DF806309DF805306FF30503A7
:1011F0008DF805309DF804306FF305038DF8043049
:10120000FFF76AFF05B05DF804FB00BF0040024035
:1012100007B501A80FF09CFD01A80CF0B1FA03B0CE
:101220005DF804FB10B50446024B0360FFF734FA87
:10123000204610BDBC4A020010B50446FFF7F2FF7D
:10124000204606F0DDFB204610BDFFFF10B504462A
:101250000349FFF72FFB034B2046236010BD00BF5F
:1012600000800940AC4B020038B5074C236833B905
:101270002C2006F0C1FB0546FFF7E8FF256020683B
:10128000BDE83840FFF7B6BA24C3072010B50446BE
:10129000024B0360FFF700FA204610BDBC4A020073
:1012A00010B50446FFF7F2FF204606F0A9FB2046E2
:1012B00010BDFFFFF7B50D460D49044608681646F8
:1012C00020F0F000086008681F4640F050000860F9
:1012D0000121032005F09EFF06F06AF80097014601
:1012E00033462A462046FFF7F9FA03B0F0BD00BFA7
:1012F00000C0024010B504460349FFF7DBFA034B78
:101300002046236010BD00BF00C00040144C020006
:1013100038B5074C236833B92C2006F06DFB054621
:10132000FFF7E8FF25602068BDE83840FFF762BAA4
:1013300028C3072010B50446024B0360FFF7ACF941
:10134000204610BDBC4A020010B50446FFF7F2FF6C
:10135000204606F055FB204610BDFFFF10B50446A1
:101360000349FFF7A7FA034B2046236010BD00BFD7
:1013700000C009407C4C020038B5074C236833B9E3
:101380002C2006F039FB0546FFF7E8FF25602068B2
:10139000BDE83840FFF72EBA2CC3072030B504460D
:1013A0000D1F131B0344032B0AD822F00303194417
:1013B00002F00302013B18440A44914205D130BDBA
:1013C00055F8043F44F8043BEBE711F8013B00F803
:1013D000013FF2E70244904200D1704700F8011B40
:1013E000F9E7024600F10B010020C30143EA500374
:1013F00012F8010B03448A4203F0FF00F5D1704755
:10140000036810B5044653B119460A4611F8010B9A
:101410001F2810D93A28F8D1591C8A4202D04FF01F
:10142000FF3010BD1B78303BD9B20129F7D801320B
:101430001846226010BD002010BD03692DE9F0415F
:1014400001F109020D4663B300242E2741694E1EA7
:1014500016F8013F0134202B19D0052B48D0092C58
:1014600001D117700132A3F1410EBEF1190F0CD852
:10147000082C8CBF4FF0100C4FF0080C91F80CE0CA
:101480001CEA0E0F1CBF2033DBB2137001320B2C91
:10149000DED1CB7A2B72CB692B600B8BAB80CB8AE6
:1014A000EB8000241470AE693EB3036923B90024B5
:1014B00000233355BDE8F081EB69002BF7D04FF6E0
:1014C000FF73028C9A42F2D0D0F81C80771E38F855
:1014D00014000028ECD0002101F0E2FF0028E6D043
:1014E000EB69013B9C42E2D2013407F8010FEEE7C1
:1014F000092C4FF0E503C8D1B3E7BDE8F081F8B59A
:10150000056B00F13407044601232A46394640782A
:1015100002F067FEA0B9636AE269EB1A9342207198
:1015200001D30020F8BDE678012EFAD9E3693946E7
:101530001D442A460123607802F053FE013EF3E782
:101540000120F8BD03790BB1FFF7D9BF18467047EA
:1015500070B50446FFF7F6FF054680BB2378032BE2
:1015600025D16379012B22D104F1340601464FF4D1
:1015700000723046FFF72EFF4AF65522A4F83222B9
:101580000F4A3146626302F1FF5202F500522032E7
:10159000C4F8182262696078C4F81C222269C4F871
:1015A0002022226A0132226302F01BFE65710022B2
:1015B0006078114602F031FE003018BF012070BD86
:1015C00052526141036B70B58B4205460E4611D0F5
:1015D000FFF7B8FF044610B10124204670BD012377
:1015E000324605F13401687802F0DFFD0028F3D1BE
:1015F0002E63F2E70024F0E7002310B503714FF0EB
:10160000FF3303630446FFF7DDFFA0B94AF6552315
:10161000B4F832229A4210D1D4F86A30084A23F042
:101620007F4393420AD0D4F8860020F07F40801A8E
:1016300018BF012010BD032010BD022010BD00BF47
:10164000464154000023F0B5036085B007460846C4
:101650001546FFF7D5FE061EC0F2F1807D4B53F80C
:101660002640002C00F0ED80E06801F0F7FE002835
:1016700000F0E9803C6023786BB1607802F08DFD6A
:10168000C10708D4002D00F0B78010F0040000D08E
:101690000A2005B0F0BD0023F0B22370607002F0A4
:1016A00069FDC20700F1D1800DB14307F0D40021DC
:1016B0002046FFF7A1FF012840F0AC802146002220
:1016C00091F8F6310BB1D1F8FA314DF822300132F0
:1016D000042A01F11001F3D100265DF82650002DF7
:1016E00000F08C8029462046FFF786FF002840F056
:1016F0008680B4F83F30B3F5007F40F08980B4F8BD
:101700004A1001B9A16D94F84420E161531E012BE8
:10171000E2707DD894F84160A670002E78D0731ED8
:10172000334275D1B4F845E01EF00F0FA4F808E07D
:101730006ED1B4F8473003B9636DB4F84270002F2E
:1017400066D04A4307EB1E101044834260D31B1A35
:10175000B3FBF6F3002B5BD040F6F576B3425BD9D2
:101760004FF6F576B34294BF0226032602332F4488
:101770002844032EA36125626762E0624ED1BEF168
:10178000000F45D1226E9B00A26203F2FF13B1EB62
:10179000532F3DD34FF0FF33636123618023032E2A
:1017A000637122D1B4F86430012B1ED1691C20462C
:1017B000FFF708FFC8B94AF65523B4F83222607122
:1017C0009A4212D1626B244B9A420ED103F1FF531D
:1017D000D4F8182203F5005320339A4201BFD4F8FD
:1017E0001C326361D4F8203223611C4A26701388AE
:1017F00001339BB21380E38000204AE702200136C8
:10180000042E7FF46AAF032821D000283FF471AF83
:101810000D203EE70025F6E70126A7E7BEF1000F01
:10182000F6D0022E17444FEA43021CBFD21803F031
:101830000103A7620CBF134603EB5203A5E70B207D
:1018400027E70C2025E70F2023E7032021E70120CD
:101850001FE700BF30C307205252614138C3072041
:1018600010B50446A8B103689BB11A788AB1D9882B
:10187000828891420DD1D86801F0F0FD58B12368FB
:10188000587802F08AFC10F0010F14BF03200020EA
:1018900010BD092010BD0F2010BD50B10F2905D873
:1018A0004FF41A4323FA01F1CB0702D4C06801F0C8
:1018B000E8BD704783690239023B99423DBF837896
:1018C000C06A01FB0300002070470129F8B50746F4
:1018D0000C464BD98369994248D20378022B29D010
:1018E000032B34D0012B41D101EB5106416A01EBAE
:1018F0005621FFF767FE10B14FF0FF30F8BD796A4F
:10190000C6F3080301363B4401EB5621384693F8F1
:101910003450FFF757FE0028EED1C6F308063E44C8
:1019200096F83400E30745EA00204CBF0009C0F3F5
:101930000B00F8BD416A01EB1421FFF743FE0028BC
:10194000DAD1660006F4FF763E44B08EF8BD416AF7
:1019500001EBD411FFF736FE0028CDD1A40004F42A
:10196000FE743C44606B20F07040F8BD0120F8BD6F
:1019700070B5044682680D46012AE18001D102203B
:1019800070BD036899698A42F9D2BAB919780329F6
:1019900001D1996A99B919898D42F0D2986AE260A9
:1019A0000028ECD0236800EB1510343305F00F0548
:1019B00003EB451520616561002070BD11460A46A4
:1019C0009E783601B5421146206802D2FFF772FFB9
:1019D000E5E7FFF77AFF431C024607D00128CED97E
:1019E00023689B699842CAD2AD1BEBE7012070BD0A
:1019F0000129F8B505460C46164660D98369994217
:101A00005DD20378022B3AD0032B45D0012B54D161
:101A100001EB5107416A01EB5721FFF7D3FD18BBDA
:101A2000C7F3080314F001042B4417BF93F83420C4
:101A3000F2B202F00F0132011CBF02F0F0020A43C1
:101A400083F834200123696A01372B7101EB572198
:101A50002846FFF7B7FD38B9C7F308072F4434B15C
:101A6000C6F3071687F8346001232B71F8BD97F889
:101A70003430C6F3032623F00F031E43F2E7416A16
:101A800001EB1421FFF79EFD0028EDD1640004F462
:101A9000FF742C44A686E7E7416A01EBD411FFF7F7
:101AA00091FD0028E0D1A40004F4FE7434342B59D5
:101AB00003F070431E432E51D6E70220D4E70220E4
:101AC000F8BDF8B505460F4671B90669E6B18369F8
:101AD0009E4228BF01263446AB6901349C4216D38E
:101AE000012E13D8002408E0FFF7EFFE012804467A
:101AF00035D9013003D14FF0FF342046F8BDAB6932
:101B00009C42FAD33E46E6E70126E4E7022421465A
:101B10002846FFF7DAFE30B1411CECD001281ED078
:101B2000B442D9D1DEE76FF0704221462846FFF774
:101B30005FFF90B957B96B692C615A1CDDD0013B2E
:101B40006B616B7943F001036B71D6E7224639462E
:101B50002846FFF74DFF0028EDD00128CBD0012407
:101B6000CBE72DE9F843C68804460136B3B289466F
:101B700013B90420BDE8F8830369002BF9D016F0EF
:101B80000F0807D1C16801330361006859B903899F
:101B90009E42EED22368E680343303EB4813636140
:101BA0000020BDE8F8838778013F17EA1617F1D1C6
:101BB000FFF78BFE0128054602D80220BDE8F88316
:101BC000421C02D10120BDE8F883206883699D4250
:101BD00027D3B9F1000FCCD0E168FFF772FF0546BB
:101BE000002831D00128E8D0431CEBD02068FFF753
:101BF000A9FC01460028E5D120684FF4007234307A
:101C0000FFF7E8FB226829461046FFF753FE4FF026
:101C100001091063206883789F4209D3036BDF1B9F
:101C20000763E56029462068FFF744FE2061B1E7BD
:101C300080F80490FFF763FC0028C3D122680137C5
:101C4000136B01331363E5E70720BDE8F883FFFF5B
:101C50002DE9F74F4FF0FF084FF6FF770646444651
:101C6000078431693068FFF7ADFC824600285ED1F9
:101C700075692B78002B76D0E52B06D0E97A01F038
:101C80003F02090703D50F2A03D0378447E00F2A04
:101C900054D1D6F81CB0BBF1000F41D058063CD54A
:101CA00003F0BF04F38895F80D8033846B7B4345C4
:101CB00035D195F800A001202AF0400A0AF1FF333F
:101CC0004FF00D0A4FF000090AFB03FA274B19F8F1
:101CD0000320AA5A78B3104601F000FCBAF17F0F36
:101CE00001901CD80AF101023BF81A00009201F0A1
:101CF000F5FB0199814212D1009A924609F101093E
:101D0000B9F10D0FE2D12B78590603D510B13BF88C
:101D10001A3023B9013CE4B202E0A342C6D0FF244A
:101D200000213046FFF71DFF8246002899D050461B
:101D300003B0BDE8F08FBA42E0D0F0E724B92846FE
:101D4000FFF74FFB4045F2D0B369DA7AD2079CD453
:101D500003F10B009842EAD015F8011B13F8012B90
:101D60009142F7D091E74FF0040AE0E7104D0200EE
:101D70002DE9F74F0B7807462F2B884601D05C2BB7
:101D800001D108F101080024BC6098F800301F2B35
:101D900000F2908021463846FFF7EAFD7C6103B0EF
:101DA000BDE8F08F25F8020F464693E02028A044B6
:101DB00034BF042400240BEB4602002E00F0A9805F
:101DC00032F8021D202902D02E2940F0A680013EC3
:101DD000F3E701313BF81120202AFAD02E2AF8D05F
:101DE00009B144F003044A4632F8020D2E2801D00E
:101DF000013EF9D14FF0000A4FF0080955463BF873
:101E000011004A1C002800F09F80202804D02E28B2
:101E100006D1B24200F08D8044F003041146EEE793
:101E2000CA4580F08980B24211D1B9F10B0F06D1B9
:101E300086E0B24203D044F0030400F28580AD0096
:101E4000EDB232464FF00B094FF0080AE6E77F2863
:101E50000DD90021019201F023FB019A18B15D4BCD
:101E6000184410F8800C80B244F0020438B15A4B88
:101E700013F8011F002900F09F808142F8D15F20F4
:101E800044F00304B96901F80A000AF1010AC5E740
:101E900045F00205F6E75A0781D47A69D37ADB0662
:101EA00039D53968538B0978032904BF928A43EAEC
:101EB0000243BB6098F8003044462F2B08F101081C
:101EC000F8D05C2BF6D00026D7F81CB004F1FF390F
:101ED000ABF1020519F8010F06F101081F287FF682
:101EE00065AF2F283FF462AF5C283FF45FAFB8F1D5
:101EF000810F0ED0012101F0D3FA50B17F283FF6B7
:101F000051AF364911F8012F002A3FF44BAF8242FE
:101F1000F8D1062043E7052041E7002520212BF8D2
:101F200016500B22B869FFF755FA0BEB4609294604
:101F300050E7CA45FFF479AFB9F10B0F7FF479AFE1
:101F40004FF00B0944F00304BB691A78E52A04BF7B
:101F500005221A70B9F1080F04BFAD00EDB205F00B
:101F60000C030C2B03D005F00302032A01D144F02B
:101F70000204A10709D405F00305012D08BF44F0B0
:101F80001004042B08BF44F00804BB690021DC7274
:101F90003846FFF7EDFC10B93846FFF759FEBB692C
:101FA000DB7A00283FF477AF04287FF4F8AE13F013
:101FB000040F08BF0520F2E6A0F1410119297FF6C0
:101FC00067AFA0F1610119299EBF203845F00105D6
:101FD00080B257E7904C0200704D0200674D02003E
:101FE0000C222DE9F043866987B0C7690446314663
:101FF0000DEB0200FFF7D2F99DF81730DB0779D51A
:1020000000234FF00109DFF80882F372E3610B222D
:1020100003A93046FFF7C2F9B9F1050F4FD84B4677
:10202000072203F00F0000F13001392988BF00F1C9
:102030003701013A01A810441B094170F1D17E20FB
:1020400006A9114401F8140C9A423DD0F15C2029F4
:1020500038D13344072A8FBF202106A9891811F8E7
:10206000141C98BF013203F8011B991B0729F1D9F1
:1020700000212046FFF77CFC0546A8BB2046FFF761
:10208000E7FD054680BB09F10109B9F1640FBED136
:102090000725284607B0BDE8F083102102F00105AE
:1020A00005EB4303DD0348BF83EA080301394FEA28
:1020B0005202F3D130F8022F002AEED1B0E7B81E59
:1020C0004B46F7E70133BFE71346C2E7013616E098
:1020D00001261CE0074601212046FFF742FD054688
:1020E000E8B1042DD4D0D4E7042DD2D19DF8173017
:1020F000F372E7619DF817309B07E9D5002637F8A2
:102100001630002BE2D10D231936B6FBF3F6002171
:102110002046FFF72DFC05460028E2D1074621693D
:102120002068FFF74FFA05460028DAD163691B786B
:10213000E52B01D0002BCDD10137BE42CBD1013EE2
:1021400049D0E1882046891BFFF712FC054600288C
:102150009FD1A069FFF745F94FF6FF790746DFF8F1
:10216000B48021692068FFF72DFA0546002890D138
:102170000F226369D4F81CE0DA720D22F1B24D1E11
:102180006A4305465F7318735883484518BF3EF885
:10219000120015F808C005F1010518BF013223F837
:1021A0000C00002808BF48460D2DEED1484502D04E
:1021B0003EF812200AB941F040010122197023684B
:1021C00000211A712046FFF7CCFC054600287FF459
:1021D00060AF013EC5D121692068FFF7F3F90546DC
:1021E00000287FF456AF202229466069FFF7F2F8F5
:1021F0000B22A1696069FFF7D1F8A3696269DB7AF4
:1022000003F018031373012223681A7141E700BF1A
:1022100021100100104D02004FF6FF7370B5018CC4
:10222000C5880446994208BF2946FFF7A1FB03462B
:10223000E8B9E52621692068FFF7C4F9034698B993
:10224000014620226069FFF7C5F801216269167016
:1022500022681171E288954209D919462046FFF794
:1022600080FC03460028E5D0042B08BF0223184653
:1022700070BDFFFF2DE9F843FF2705463C460426C5
:102280004FF6FF79DFF8D080296911B9002E58D0B8
:102290004CE02868FFF796F90646002846D16869A1
:1022A0000378002B55D0E52B38D02E2B36D0C27AB0
:1022B00002F03F02082A31D00F2A3DD159062BD512
:1022C00003F0BF04EB88477B2B84437BBB4225D1C3
:1022D00003784FF0010E03F03F035A1E0D235343C2
:1022E0000022EE6912F80810415ABEF1000F20D00A
:1022F0007F2B13D88E4626F81310013301320D2A96
:10230000F0D10278520604D57F2B07D8002226F898
:102310001320013CE4B202E0A342D6D0FF24002106
:102320002846FFF71EFC06460028ADD000232B618F
:1023300008E04945E2D0F1E73CB9FFF752F8B8426E
:1023400003D100263046BDE8F8834FF6FF732B8497
:10235000F8E70426EAE700BF104D0200012970B536
:1023600004460D4601D8022070BD83699942FAD215
:10237000A3699D4205D229462046FFF7A6FA0646E4
:1023800008B9002070BD0128EDD0411C10D00022FA
:1023900029462046FFF72CFB58B963695A1C05D023
:1023A00001336361637943F0010363713546DFE70D
:1023B000012070BDF0B585B0019004A840F8041D5F
:1023C00000911646FFF71CF8051E2ADB174F57F839
:1023D00025404CB1E06801F03FF818B902242046CE
:1023E00005B0F0BD00232370019989B9019C47F81D
:1023F0002540002CF3D0012E15D16946002201A8FA
:10240000FFF720F9044601460198FFF746FAE6E790
:102410000023E8B201F80C3B01F014F80028DDD0ED
:10242000E4E70B24DBE70024D9E700BF30C3072033
:102430002DE9F043D1B0019190460646002800F006
:102440008C80002302F01E02036001A906A8FFF79A
:10245000F9F80546002874D103AB0C9301990FAB32
:1024600006A80D93FFF784FC0B9C10B9002C08BF45
:10247000062018F01C0F08F01F073DD098B3042861
:1024800002D106A8FFF7ACFD47F0080748BB0B9C3C
:1024900038073BD501F034F80023C4F80E00069845
:1024A000E372E3610278B4F81A80032A08BFA28AB3
:1024B0006383A3824FF0010308BF48EA0248037117
:1024C000B8F1000F22D04146D0F83090FFF746FF18
:1024D00038B9069808F1FF3303614946FFF772F8EF
:1024E000A0B105462DE0E37A13F0110F33D118F0B7
:1024F000040FCDD0082524E00028F2D1E37AD906D4
:1025000027D418F0020F01D0DA0724D43B07069B2A
:1025100048BF47F020071A6BB771F261002234629E
:10252000F2711978628B032904BFA18A42EA014241
:102530003261E2693360F2600022DB88B260B2612E
:10254000B38029460698FFF7A8F9284651B0BDE8A0
:10255000F0830425F5E70725F3E70925F5E72DE9DD
:10256000F74F9B460023CBF80030044689461646B9
:10257000FFF776F9054610B1294620684AE0E1796F
:1025800039B12068FFF789F9E579284603B0BDE83D
:10259000F08FA379D80705D407212068FFF77DF9CC
:1025A0000725F2E7E368A768DF1BB74228BF374675
:1025B00004F1240300930FB93946DEE7A268C2F3A1
:1025C0000803002B74D120688378013B03EA52236F
:1025D00013F0FF0311D12AB92069012808D8022578
:1025E000E571C9E761690193FFF76FF9019BF4E7B2
:1025F000411C01D10125F3E76061D4F800A06169B5
:1026000050460193FFF756F9019B30B90225504619
:102610002946E571FFF741F9B7E77E0A00EB0308A9
:1026200029D09AF802209919914288BFD61AF3B29C
:10263000424649469AF8010001F0B7FD0028D9D179
:10264000A3795A060BD5A069A0EB0800864206D9EB
:102650004FF40072009909EB4020FEF79FFE7602CE
:10266000A368B1443344A360DBF80030BF1B33449C
:10267000CBF800309FE7A269904517D0A3795B069D
:102680000BD5012300999AF8010001F0AAFD00285A
:10269000B0D1A37923F04003A371206801234246FF
:1026A0000099407801F081FD0028A3D1C4F818807A
:1026B000A1684846C1F30801C1F50076BE4228BFB3
:1026C0003E46243132462144FEF768FEC8E72DE934
:1026D000F74F9B460023CBF80030044689469046CE
:1026E000FFF7BEF8054610B12946206868E0E17999
:1026F00039B12068FFF7D1F8E579284603B0BDE885
:10270000F08FA379990705D407212068FFF7C5F852
:102710000725F2E7A36813EB080F05D204F12403A1
:102720000193B8F1000F0AD1A368E268934200F266
:10273000A280A379002143F02003A371D5E7A2680A
:10274000C2F30803002B40F0838020688378013BAC
:1027500003EA522313F0FF03009316D15AB92169FB
:1027600021B9FFF7AEF901460028DDD0012904D1D7
:102770000225E571B8E76169F3E74A1C01D101253B
:10278000F7E72369616103B92161A3795B060CD581
:1027900020680123A2690199407801F022FD0028F8
:1027A000EDD1A37923F04003A371D4F800A06169AF
:1027B0005046FFF77FF830B9022550462946E571AB
:1027C000FFF76BF899E7009B5FEA582600EB0307D9
:1027D0002DD0009A9AF8023032449A4288BF009A6B
:1027E000494688BF9E1AF3B23A469AF8010001F0B2
:1027F000F8FC0028C3D1A169C91B8E420AD94FF445
:10280000007209EB41210198FEF7C8FDA37923F07E
:102810004003A3717602A368B1443344A360DBF89C
:102820000030A8EB06083344CBF8003079E7A36901
:102830009F420CD0A268E3689A4208D201233A462C
:1028400001999AF8010001F0B0FC002897D1A76126
:10285000A0684946C0F30800C0F50076464528BF89
:102860004646243032462044FEF798FDA37943F0D3
:102870004003A371CFE7E3605BE770B50446FEF762
:10288000EFFF0546002838D1A3799A0635D55B06B7
:1028900013D520680123A26904F12401407801F0D6
:1028A000A0FC30B101212068FEF7F7FF0125284682
:1028B00070BDA37923F04003A371E1692068FEF79E
:1028C00081FE0546C8B9266AF37A43F02003F37205
:1028D000E368F361236973831B0CB38200F010FE7D
:1028E0007582C6F81600A379206823F02003A3712F
:1028F00001230371FEF72CFE054629462068FEF7EA
:10290000CCFFD4E738B50546FFF7B7FF044648B912
:102910002846FEF7A5FF044620B9286821462C600A
:10292000FEF7BBFF204638BDF8B504460E46FEF75D
:1029300097FF054610B1294620686AE0E17929B180
:102940002068FEF7AAFFE5792846F8BDE368B342A0
:1029500004D2A27912F0020F08BF1E460022A3681B
:10296000A260002E30D1A368E2680021934281BFAB
:10297000E360A37943F02003A371DDE70026A36899
:10298000C3F30803002BEED0A2699642EBD0A379E3
:1029900004F1240713F0400F0BD0206801233946BF
:1029A000407801F01EFC002842D1A37923F04003B7
:1029B000A3712068012332463946407801F0F5FBC7
:1029C000002835D1A661CEE7206887787F021BB347
:1029D000013B721EB2FBF7F2B3FBF7F18A421BD345
:1029E0007A4213406169A360F61A0029C6D0BE423C
:1029F00023D8A3683344A360C6F30803002BBDD0DB
:102A000022681046FEF756FF90BB02251046294665
:102A1000E571FEF742FF97E7216961B9FFF751F8C9
:102A20000128014602D10225E57184E7013001D178
:102A30000125F9E721616161D7E7A37920689A0749
:102A400005D5FFF73EF8014620B93E46D1E7FEF72F
:102A50003CFF01464B1CEBD00129E4D923689B695C
:102A60009942E0D2A36861613B44A360F61BBEE7D4
:102A700000EB562683E730B5C9B001910546002822
:102A800037D0002201A903A8FEF7DCFD044688B96F
:102A9000039B01992B6004ABAB6107ABEB6128464C
:102AA000FFF766F9044630BB6B697BB1DA7AD20670
:102AB00003D4052400232B6014E003995A8B097872
:102AC000032904BF9B8A42EA0342AA60039B0021B8
:102AD000DB882846AB80FEF74BFF04280446E8D08D
:102AE000002CE7D121460398FEF7D7FE204649B0D7
:102AF00030BD0924FAE70428DBD0DBE770B5C4B0A9
:102B000004460E46FEF7ACFE0546E0B92EB9014676
:102B10002046FEF72DFF054615E003ABC4F818D09C
:102B2000E3612046FFF7A6FB042813D12561314657
:102B30002046FEF782FC00212046FFF712F8042809
:102B4000E9D10023236120682946FEF7A6FE284626
:102B500044B070BD0028DED1E9E72DE9F347144603
:102B600002AB43F8040D8846204600221946FEF7C2
:102B700069FD2468054630B9A7696369BA1E9342A6
:102B800009D8C8F8003020462946FEF786FE2846B8
:102B900002B0BDE8F08794F80090B9F1010F17D1A9
:102BA0000227064639462046FEF78FFE431C32D0E8
:102BB000012832D000B90136A36901379F42F1D311
:102BC0006379666143F001036371C8F80060DAE776
:102BD000034602460646616A52B9204601F1010ADF
:102BE000FEF7F0FCD8B951464FF4007204F13403FB
:102BF000B9F1020F07D1188800B901360233023A41
:102C0000013FE9D1DCE71868043A30F0704008BFB2
:102C100001360433F4E70125D2E70225D0E7054663
:102C2000CEE730B5D9B00190012201A905A8FEF781
:102C300009FD0446002831D102AB0B93019917AB73
:102C400005A80C93FFF794F8044638BB0A9B63B3BE
:102C5000DA7A12F0010F18BF0724059A5D8B1278FB
:102C6000032A04BF9A8A45EA0245BCB9DB7ADB062F
:102C700029D5012D23D9242205A90EA8FEF78EFB04
:102C800002210EA81095FEF773FE044630B90EA877
:102C9000FFF7F0FA0446A0B1042814D005982146A5
:102CA000FEF7FBFD204659B030BD0624D5E7294686
:102CB0000598FFF753FB04460028EFD10BE00224F0
:102CC000ECE70724EAE705A8FFF7A6FA0446002880
:102CD000E4D1002DEBD10598FEF73AFC0446DDE780
:102CE0002DE9F04FD1B0019000F00AFC012280469E
:102CF00001A906A8FEF7A6FC04460546002840F0F8
:102D00008A8003AB0C9301990FAB06A80D93FFF7D4
:102D10002FF80446002800F08A8004287BD1294639
:102D20000698FEF7CEFE054600286FD001287AD01F
:102D3000431C7AD00698FEF705FC0446002866D1AD
:102D4000069E29463046FEF7B5FD06F134072146BA
:102D500000904FF400723846FEF73CFB0B22202116
:102D60003846FEF737FB10222E2425FA02FA1FFA06
:102D700085F986F83F203946202206F1540086F86E
:102D80003440C6F84A80A6F84E90A6F848A0FEF750
:102D900005FB069986F855400878089A0328009B99
:102DA00003D1886A824208BF0022A6F86E20120C66
:102DB000A6F868208E78A6B906A8FFF711F9044690
:102DC00028BB10220B9B0698DA72C3F81680A3F872
:102DD0001A90A3F814A001230371FEF7B9FB04466F
:102DE00019E0069803F1010B03634FF0010303712F
:102DF000FEF785FB044650B901464FF40072384691
:102E0000013EFEF7E7FAF6B25B46D4E7072429460F
:102E10000698FFF7A3FA06982146FEF73EFD2046E6
:102E200051B0BDE8F08F0224F1E70124EFE7082458
:102E3000F1E710B5DEB001900091012201A90BA8C5
:102E4000FEF700FC0446002873D10B9B01991493F4
:102E500002AB11930BA81DAB1293FEF789FF04463A
:102E6000002866D1109900296AD015220B3105A8D7
:102E7000FEF794FA24220BA914A8FEF78FFA6846ED
:102E8000FEF7BEFA00285DDB009914A8FEF770FF7C
:102E90000446002858D004284BD114A8FFF7A0F806
:102EA0000446002845D1199C13220DF1160104F1A6
:102EB0000D00FEF773FA9DF814300B9A43F02003CF
:102EC000E372012313710D99169B994228D0E37A7E
:102ED000DB0625D51378618B032B08BFA38A104628
:102EE00008BF41EA0341FEF7E5FC014670B3104616
:102EF000FEF768FB0446E0B90B9B93F855202E2A99
:102F00000ED11A78032A03D116999A6A914200D0F9
:102F1000169C0122A3F86E40240CA3F868401A7195
:102F20000BA8FFF779F9044618B90B98FEF710FBC8
:102F300004460B982146FEF7B0FC20465EB010BD5B
:102F40000424F6E70B24F4E70824F2E70224F0E770
:102F50002DE9F04F89B008AB43F80C0D18460E462A
:102F60001546FEF74DFA0028C0F2F781012E00F257
:102F7000F6816B1E2B40029340F0F181504B53F8C9
:102F80002040002C00F0ED819DF80830C7B223707E
:102F9000384601F0EFF8C20700F1E581430700F180
:102FA000E48107AA0121384601F037F918B1012060
:102FB00009B0BDE8F08F07997F29F8D9002E14BF1A
:102FC0004FF0000A4FF03F0AA1EB0A0107915DB9EB
:102FD0004FF4FA63B1FBF3F33A4830F8152093420B
:102FE00018D3394B33F815506D0A15D0802D28BFF2
:102FF0008025B1FBF5F340F6F572934240F2F8817B
:103000004FF6F572934200F2B28102335B004FF04B
:103010000208F4E10135E0E70125EAE706AA032109
:10302000384601F0FAF820B9069B013BB3F5004F92
:1030300001D301230693069AB8F1030F02F1FF337F
:103040004B44C2F1000203EA0203A3EB0903069317
:1030500022D1019A9B441A440192079A0099A2EB4B
:103060000B035B1A0399B8F1020FA3EB0103B3FB47
:10307000F5F3049314D140F6F5730499994240F2A4
:10308000D581B2F5803F34BF4FF004094FF00609F7
:103090004EB34FF0F0095DE0009A1A440092DCE76D
:1030A000B8F1030F12D14FF6F573049A9A4240F229
:1030B000BD81002E40F067814FF00C0913E000BF86
:1030C00030C30720784D02001E4D0200B8F1010FF9
:1030D000D7D1B2F5803F34BF4FF001094FF0060958
:1030E000002E40F06B8104F134064FF40072002191
:1030F0003046FEF76FF9FE2143F6C160DDF81CE0B3
:1031000084F8F7110AEB0E01B1FBF0F18808069183
:1031100084F8F9113F2101230022C4F8FA114AF67C
:10312000552140F03F0084F8F801A4F8321284F8E9
:10313000F33184F8F43184F8F52184F8F691C4F879
:10314000FEE13146384601F04CF800287FF42FAFFD
:103150004FF0F80904F134064FF4007200213046B4
:10316000FEF738F90B22B2493046FEF717F94FF453
:103170000073A4F83F300123B8F1030F84F8443002
:10318000029B18BF4FF4007384F84150A4F842B07A
:103190000293BDF8083084F84990A4F84530079BA5
:1031A000C4F850A0B3F5803F34BFA4F8473063653E
:1031B0003F23A4F84C30FF23A4F84E3000F0A0F9D0
:1031C000B8F1030F069040F09C80009B1322A3658A
:1031D000022323660123A4F864300623A4F8663092
:1031E000802384F8743029239249C4F8770084F846
:1031F000763004F17B00FEF7D1F84AF655235246AB
:10320000A4F8323231460123384600F0EAFF0028A4
:103210007FF4CDAEB8F1030F06D101230AF1060207
:103220003146384600F0DDFF4FF400720021304691
:10323000FEF7D0F8B8F1030F74D0B8F1010F7E4B50
:1032400018BF6FF0FF0343EA090306936363019B12
:10325000314603F10109019A0123384600F0C1FF0C
:10326000014600287FF4A3AE4FF400723046FEF70B
:10327000B1F801230693069B009A9A425DD8039BFE
:103280004A46B8F1030F18BF1D464D44012331468D
:10329000384602F1010B00F0A4FF00287FF487AE4E
:1032A000AB455A46F2D1B8F1030F21D1634B3146F9
:1032B000636303F1FF5303F500532033C4F818325E
:1032C000049B3846013BC4F81C320223C4F8203268
:1032D0004AF65523A4F8323201230AEB030200F028
:1032E00080FF01230AF107023146384600F079FFDA
:1032F00000223846114600F090FF003018BF012030
:1033000056E6BDF80030C4F85B00A4F84A308023CC
:1033100084F858302923132284F85A30484904F19C
:103320005F0068E769F0FF03069363634FF0FF33C4
:10333000A3636FF07043E36389E701234A46314694
:10334000384609F1010B00F04CFF00287FF42FAE46
:10335000069BD946013306938DE70B2028E6132000
:1033600026E60C2024E6032022E60A2020E69B0025
:1033700003F207235B0A009300234FF00308039333
:103380004FF0200B43E004F134064FF400720021AB
:103390003046FEF71FF80B2225493046FDF7FEFFA9
:1033A0004FF40073A4F83F30012384F84150A4F88F
:1033B00042B084F844304FF0F009EAE604F13406F4
:1033C0004FF4007200213046FEF704F80B22184932
:1033D0003046FDF7E3FF4FF4007384F84150A4F842
:1033E0003F30A4F842B084F844804FF0F009CFE6B3
:1033F0004FF0010803EB430301335B08033303F28F
:10340000FF135B0A009320234FF0010B03930BEB98
:103410000A030193039A009B03EB0209019B994461
:10342000A5EB0A034B449942BFF4F8AD0E20BFE56B
:10343000344D0200404D020000FFFF005252614136
:10344000544D020010B501200C4603F0C7FA20606D
:10345000003018BF012010BD0120704710B5044690
:1034600003F00AF802280AD100234FF0FF32194670
:10347000204603F039FB431E5842584110BD01203D
:1034800010BD10B5044602F0F7FF022807D1002353
:103490002046BDE810401A46194603F01DBA10BD7B
:1034A0007F2810B516D931B1FF2812D80A4B8038C1
:1034B00033F8100010BD084A32F811408BB2844234
:1034C00003D001318029F7D10B4603F18000C0B24F
:1034D00010BD002010BD00BF8E4D02000023064924
:1034E00031F8132022B1824203D1044A32F813008A
:1034F00070470133F4E700BF8E4E02006E500200A9
:103500001FB501A8FDF7C4FD9DF8093003F00F00B9
:103510009DF8083003F01F031B0443EA40539DF855
:10352000060000F01F0043EAC0239DF8050000F0EC
:103530003F0043EA40139DF80400C0F344000343F6
:10354000BDF80A00400600F10840184305B05DF8D8
:1035500004FB08B503F0D8FB4FF47A72002309F09E
:1035600073FF08BD10B5044603F022FF074BB0FB04
:10357000F3F00223B0FBF3F2944202D3044A136146
:1035800010BDB3F5807FF9D00233F3E740420F005E
:1035900000000340034B9860DA68D206FCD49868B8
:1035A000C0B270470000034070B5FFF7D2FF00F5CE
:1035B000FA74FF20FFF7EEFF0025FF20FFF7EAFF78
:1035C000FF28064605D0FFF7C4FFA94208BFA04266
:1035D000F3D3304670BDFFFF38B54FF00075054C92
:1035E000E561FFF7E1FF044AA561137843F00103A9
:1035F000137038BD20C0092040C007202DE970435A
:1036000006460D46FFF7A5FF643080464FF00009DF
:10361000FF20FFF7BFFFFF2808D1FFF79AFF4945BA
:1036200008BF4045F4D30020BDE87083FE28FAD1DE
:10363000102D0ED900224FF400713046FDF73AFCF0
:10364000FF20FFF7A7FFFF20FFF7A4FF0120BDE841
:103650007083341D0435FF20FFF79CFF04F8040C31
:10366000FF20FFF797FF04F8030CFF20FFF792FFFE
:1036700004F8020CFF20FFF78DFF043404F8050C5A
:103680002B1BDE42E7D1DBE770B506460D46FFF7A0
:103690008BFFFF28044619D12846FFF77BFFFD2D3D
:1036A00016D022464FF400713046FDF703FC204649
:1036B000FFF770FF2046FFF76DFF2046FFF76AFF18
:1036C00000F01F00431F5842584170BD002070BDDC
:1036D000012070BD020638B504460D4607D500210D
:1036E0007720FFF7F7FF012836D804F07F044FF06A
:1036F00000721A4B9A61DA61FFF756FFFF282AD150
:103700002046FFF747FF280EFFF744FFC5F30740A9
:10371000FFF740FFC5F30720FFF73CFFE8B2FFF7D4
:1037200039FF402C15D0482C14BF01208720FFF70B
:1037300031FF4C2C02D1FF20FFF72CFF0A21FF2084
:10374000FFF728FF030607D5013911F0FF01F6D175
:1037500038BD9520EBE7FF2038BD00BF20C0092011
:10376000064A074913784969DBB2490154BF03F09F
:10377000FD0343F003031370704700BF40C00720F0
:1037800020C009202DE9F743FFF7EAFF554B1A78CF
:103790001E4612F0020F04D01878C0B203B0BDE884
:1037A000F0830120FFF7DEFE0A24FF20013CFFF733
:1037B000F1FE14F0FF04F8D14FF000734A4F214698
:1037C000FB614020FFF786FF0128804613D04FF0B1
:1037D0000008464B83F800804FF00073BB61B8F1DE
:1037E000000F7BD03378182003F0FE033370FFF70F
:1037F000B9FE3078D1E7FFF7ACFE4FF4D57100F594
:103800007A754820FFF766FF012840D10DF10408C2
:10381000FF20FFF7BFFE08F804000134042CF7D1A5
:103820009DF80630012BD2D19DF80730AA2BCED1BE
:103830002C460025FFF78DFEA94208BFA0421ED3EB
:10384000FFF787FEA94208BFA042C0D200217A201C
:10385000FFF740FF0028BAD10146FF20FFF79AFE8C
:1038600008F8010001310429F7D19DF8043013F064
:10387000400F14BF4FF00C084FF00408A9E74FF0B9
:103880008041E920FFF726FF0028D3D1D8E7214661
:10389000E920FFF71FFF02282C4636BF4FF0E90949
:1038A0004FF041094FF002080025FFF752FEA942F0
:1038B00008BFA0420BD3FFF74CFEA94208BFA042AD
:1038C00087D34FF400715020FFF704FF81E70021F8
:1038D0004846FFF7FFFE0028E7D1ECE7FFF77CFE44
:1038E00087E700BF40C0072020C009203AC3072057
:1038F00008B5FFF735FF014B187808BD40C0072019
:1039000070B5144606460846FFF72AFF002C38D04B
:103910001E4B1B78DA0736D44FF000721C4DEA615B
:103920001C4A1278130758BF4002012C014612D1DD
:103930005120FFF7CFFE38B94FF400713046FFF742
:103940005DFEB0FA80F464094FF00073201CAB6197
:1039500018BF012070BD5220FFF7BCFE0028F3D134
:103960004FF400713046FFF749FE28B1013C14F0D6
:10397000FF0406F50076F3D100214C20FFF7AAFEE4
:10398000E2E7042070BD032070BD00BF40C00720E7
:1039900020C009203AC30720F8B5144606460F4652
:1039A000FFF7DEFE002C44D0254B1A78D10742D415
:1039B0001B785A0741D44FF00072224DEA61224A27
:1039C0001278130758BF7F02012C12D139465820B4
:1039D000FFF780FE58BBFE213046FFF755FEB0FAD8
:1039E00080F464094FF00073201CAB6118BF012004
:1039F000F8BD12F0060F03D02146D720FFF76AFE6C
:103A000039465920FFF766FE0028EBD1FC213046ED
:103A1000FFF73AFE28B1013C14F0FF0406F50076EA
:103A2000F4D1FD210020FFF72FFE0028DAD1012478
:103A3000D8E70420F8BD0320F8BD0220F8BD00BF80
:103A400040C0072020C009203AC307207FB50D469B
:103A5000FFF786FE05281AD12B78012B15D005D348
:103A6000022B0BD00424204604B070BD7B4B5C6954
:103A700014F0806409D1FFF7AFFDF4E7774B5B6981
:103A800083F08063C3F380636B700024EBE7744BB7
:103A90001B78DB0700F1E0800E2800F2DB80DFE816
:103AA00000F00817555AD9D9D9D9D9D9A7ABBABD79
:103AB000CD004FF00072694BDA61FFF775FDB0F190
:103AC000FF0418BF01244FF00072644B9A61CAE7EB
:103AD00000214920FFF7FEFD044608B10124F2E76A
:103AE00010216846FFF78AFD0028F7D09DF80030C6
:103AF0009DF808109B09012B9DF8093006D15A1C2E
:103B000002EB012292B292022A60DCE79DF80720C4
:103B10009DF80A00920002EB91129DF80610013206
:103B2000890201F440610A449DF805105B0001F030
:103B30000F0101EBD011023103F006030B44DBB29D
:103B400092B2093B02FA03F32B60BCE74FF4007317
:103B50002B800024B7E7434E317811F004011CD0CC
:103B60000021CD20FFF7B6FD0028B7D1FF20FFF7D9
:103B700011FD10216846FFF741FD0028AED030242A
:103B8000FF20FFF707FD601E10F0FF04F8D19DF83D
:103B90000A301A0910239340D6E74920FFF79AFD0F
:103BA000044600289AD110216846FFF727FD002817
:103BB00094D030789DF80A3010F002009DF80B1078
:103BC0000AD05B009DF80D2003F07E0303EBD113B8
:103BD00092090133013ADEE7CA0002F01802C3F38A
:103BE000840302EB5112013302FB03332B60B0E775
:103BF0001C4B1B782B70ACE700214920FFF76AFDB6
:103C000000287FF46BAF10212846FFF7F7FCB0FACD
:103C100080F4640957E700214A20EFE700217A2069
:103C2000FFF758FD00287FF459AF291DFF20FFF74B
:103C3000B1FC05F8010B8D42F8D18AE70021CD20B7
:103C4000FFF748FD00287FF449AFFF20FFF7A2FCF3
:103C50004021D9E7042436E7032404E720C00920E3
:103C600040C007203AC30720054B1B78253BDBB239
:103C7000032B9ABF034A52F823000020704700BF6D
:103C800040C30720585202001B4B2DE9F0411D880C
:103C90000646B5F5007F0F46144603D12A46214655
:103CA00038460BE0B5F5807F0CD12A4621463846D0
:103CB000B0472A4604F5807107F580703346BDE8A9
:103CC000F0411847B5F5047F04D1510A89024FF439
:103CD0000072E5E7B5F5847F0BD1140A61024FF459
:103CE00080723846B0474FF4807201346102B818D0
:103CF000E4E7BDE8F08100BF42C3072010B5294BBF
:103D000000294DDD0729027829DD9A6042780839BB
:103D10009A6082789A60C2789A6002799A60427951
:103D20009A6082799A60C47900F108029C609C696B
:103D30006407FCD59C6804709C6844709C6884701F
:103D40009C68C470DC68E406FCD49C6804719C68C0
:103D500044719C6884719C68C4711046D0E7032943
:103D600014DD9A60427804399A6082789A60C47847
:103D7000021D9C60DC68E406FCD49C6804709C68AE
:103D800044709C6884709C68C470E6E7441C9A6028
:103D90000139DA68D206FCD49A6802702046AFE78F
:103DA00010BD00BF0000034007B50B0C8DF80530B7
:103DB0008DF807100B0A04218DF804000DEB0100AB
:103DC0008DF80630FFF79AFF03B05DF804FBFFFFA4
:103DD000F7B5032340250E4C1746E5618DF80430F6
:103DE0000B0C8DF805308DF807100B0A04210646E0
:103DF0000DEB01008DF80630FFF780FF00223946F9
:103E00003046FDF757F8A561A561A56103B0F0BD87
:103E100000C0092040220D4BDA61D7220C4B9A607A
:103E2000DA68D206FCD40A4A9B68FF2113469160E7
:103E3000D868C006FCD4986810F0800FF7D04022F4
:103E4000024BC0B29A619A619A61704700C0092022
:103E500000000340F7B5FFF7DDFF002340271E4CAD
:103E60001E4E23801E4BF7611A889B78054603215E
:103E700001A8ADF804208DF80630FFF73FFF9DF84C
:103E800005209DF806301F2AB761B761B76115D1CB
:103E9000A3F12502032A11D8124A252B137005F02D
:103EA000010011D1002814BF4FF480734FF48473C4
:103EB0002380FFF7D9FE0C4B400A18602088B0FA27
:103EC00080F0400903B0F0BD002814BF4FF4007328
:103ED0004FF40473ECE700BF42C3072000C0092081
:103EE0004E52020040C307203CC307202DE9F04199
:103EF0008B1817460F4A013B12680446934212D8AA
:103F00004D020026FFF786FFDFF82C802D1BBE42F6
:103F100004EB05020ADA21464046FFF7B5FE04F538
:103F200000740136F3E70120BDE8F0810020BDE810
:103F3000F08100BF3CC30720D13D01008B182DE963
:103F4000F04117460E4A013B1268934211D80446CD
:103F50000026DFF83080C0EB4125BE4204EB0502AD
:103F60000ADA21464046FFF78FFE04F50074013659
:103F7000F3E70120BDE8F0810020BDE8F08100BF3B
:103F80003CC307206940010008B5072805D8DFE8D1
:103F900000F0060A0F1308080808042008BDFFF700
:103FA00039FF002008BDFFF75FFE400A0860F8E710
:103FB0004FF400730B80F4E701230B60F1E7FFFF80
:103FC00070B590B003466A466E4600F1400514464F
:103FD00018685968083303C4AB422246F7D140241D
:103FE000074D0021EC619B20FFF7DEFE21463046A5
:103FF000FFF784FEAC61AC61AC6110B070BD00BF76
:1040000000C0092070B540240646074D00217720E6
:10401000EC61FFF7C9FE21463046FFF76FFEAC6149
:10402000AC61AC6170BD00BF00C0092008B5064B93
:10403000198831F01F0104D0FFF716FEB0FBF1F034
:1040400008BD084608BD00BF42C30720014B1888C1
:10405000704700BF42C30720024B1878003018BFDA
:104060000120704742C307204FF0FF332DE9F7438B
:104070000F46914601938046FFF7CCFEFFF7ECFF19
:104080000646B8B14025194C194BE5611B88032041
:10409000B3F5847F0CBF4FF480714FF40071394346
:1040A000FFF782FE04210DEB0100FFF727FEA5615B
:1040B000A561A56140230D4C39468220E361FFF7DD
:1040C00073FE012249464046FCF7F4FE3EB1019BD7
:1040D00002A8013340F8043D0421FFF70FFE4023FE
:1040E000A361A361A36103B0BDE8F08300C0092010
:1040F00042C30720124B37B51B88B3F5847F0CBF32
:104100004FF480714FF400714FF0FF3341EA4021CA
:104110000193FFF7A1FF68B140250A4C0320E56138
:10412000FFF742FE04210DEB0100FFF7E7FDA5615B
:10413000A561A5610198431C08BF002003B030BDF4
:1041400042C3072000C0092037B540250421074B92
:10415000074C18680190E5610DEB0100FFF7CEFDFB
:10416000A561A561A56103B030BD00BF5152020039
:1041700000C0092010B50446FCF764FE1CB1012CF8
:1041800008D0042402E0FFF765FE0446FCF772FE47
:10419000204610BDFFF7F6FAF7E728B1012801D055
:1041A00004207047FFF7A4BB7047F8B507460C46DC
:1041B00015461E46FCF746FE1FB1012F0BD0042406
:1041C00005E0324629462046FFF790FE0446FCF7FC
:1041D00051FE2046F8BD324629462046FFF790FBA7
:1041E000F4E7F8B507460C4615461E46FCF72AFECE
:1041F0001FB1012F0BD0042405E03246294620468A
:10420000FFF79CFE0446FCF735FE2046F8BD32461B
:1042100029462046FFF7C0FBF4E770B506460C467A
:104220001546FCF70FFE1EB1012E0AD0042404E04F
:1042300029462046FFF7A8FE0446FCF71BFE204651
:1042400070BD29462046FFF701FCF5E72DE9F04F48
:10425000ADF2546D0C4690460146012282A8994663
:10426000FEF7E6F8824650B90A2221460DF22C40AC
:10427000FEF7DEF8824638B182A8FEF743FB5046CF
:104280000DF2546DBDE8F08F6C46054606460746B4
:104290002060019002F038FD4FF47A72002309F09B
:1042A000D3F8234683464FF4007202A982A8FEF792
:1042B00056F9824608B922689AB9B8F1000F01D0C0
:1042C000C8F80070B9F1000F01D0C9F80060DDF83E
:1042D000783603B11D6082A8FEF714FB0DF22C4066
:1042E000CBE702F011FD4FF47A72002309F0ACF82D
:1042F000B0EB0B00074402F007FD4FF47A72002385
:1043000009F0A2F801AB8346226802A90DF22C4005
:10431000FEF7DDF982460028CFD10199226891424B
:10432000CBD102F0F1FC00234FF47A7209F08CF843
:104330002368B0EB0B0006441D44ABE7F0B51D4607
:104340000023ADF50B7D0E4617460146012201A85C
:104350000093FEF76DF8044670B91DB1294601A817
:10436000FEF7E2FA6B463A46314601A8FEF7F7F847
:10437000044601A8FEF7C6FA20460DF50B7DF0BDF8
:10438000F0B51D460023ADF50B7D0E4617460146E0
:104390000A2201A80093FEF74BF8044670B91DB13C
:1043A000294601A8FEF7C0FA6B463A46314601A8F5
:1043B000FEF78DF9044601A8FEF7A4FA20460DF594
:1043C0000B7DF0BDF0B51D460023ADF50B7D0E460F
:1043D00017460146122201A80093FEF729F8044669
:1043E00070B98DB1294601A8FEF79EFA6B463A4690
:1043F000314601A8FEF76BF9044601A8FEF782FAE0
:1044000020460DF50B7DF0BD0499ECE713460A46F6
:1044100001790068FBF775BF1FB5002204AB23F8D4
:10442000042D02220479009200680A462146FBF717
:1044300053FF9DF80C009DF80D3043EA002004B0B6
:1044400010BD10B5044619222A21FFF7DFFF0D2207
:1044500021792068FBF744FFA0F12A035842584114
:1044600010BDFFFF044A13881F2BDFBF581C1080AC
:10447000024A42F823107047C4C3072044C30720F0
:10448000F0B5154E3388012B23DD144A0020154664
:10449000013B984208DA52F8041F013052F8044CEC
:1044A000091B42F8041CF4E700214FF0010E0C46F2
:1044B000686800EB50008AB2934208DD55F822701C
:1044C0000131B8423CBF0EFA02F21443F3E7044B49
:1044D0001C6000233380F0BDC4C3072044C3072001
:1044E000C8C3072008B50121022002F079FE084B5D
:1044F00001209A6A22F007029A629A6A42F0060242
:104500009A62044AD36843F03003D36008BD00BF09
:104510000080004000C0024008B5044B417101F02A
:104520007F015A5C0321FFF771FF08BD685202004A
:1045300008B5044B817101F07F015A5C0221FFF73D
:1045400065FF08BD6852020038B50446017900686D
:10455000FBF7E2FE054688B1002206212046FFF760
:1045600055FF002207212046FFF750FF2E2120464D
:10457000FFF7D2FF2E212046FFF7DAFF284638BD8D
:1045800070B56424B1FBF4F303FB14140A21E4B204
:10459000B4FBF1F501FB15413031C9B20646FFF716
:1045A000C7FF092C88BF05F130013046BDE87040D7
:1045B00094BF2021C9B2FFF7AFBF01207047FFFFB2
:1045C00038B50C46054601F067F9012204F00F03E7
:1045D0002B700E4B14F0010F14BFDA619A610222A6
:1045E00014F0020F14BFDA619A61102214F0040F64
:1045F00014BFDA619A614FF4807214F0080F14BF8F
:10460000DA619A61BDE8384001F056B920C009204E
:10461000012070470220FCF727BA01207047FFFFF6
:10462000044B5B69180B00F00C00C3F341231843E3
:10463000704700BF20C0092010B504468122012127
:10464000FFF7E4FE012221792068FBF749FE10F014
:10465000600F14BF0120002010BD38B500210446B2
:10466000FFF7DAFE812205B201212046FFF7CEFED8
:10467000102095FBF0F008F0FDFC4FF0765108F0AB
:104680004DFDA16808F042FC38BDFFFF08B5FFF7FB
:10469000E4FF054908F042FD044908F0F3FD4FF03E
:1046A000844108F033FC08BD000010410000A04028
:1046B000242310B54FF6FF7403FB0101884200D19B
:1046C00010BD43782BB1038C1344A34228BF23466B
:1046D00003842430F2E7FFFF002337B502A840F837
:1046E000043D0C4B04215B68984705460A4B019A30
:1046F0001C680421141B1A6008482246FFF7D8FFE3
:10470000224602210648FFF7D3FF281C18BF0120CC
:1047100003B030BDCCC30720FCC40720E2C3072090
:1047200096C4072008B50B4B197803788B420A4BC7
:104730000BBF1A889A880132013214BF9A801A80FE
:10474000064B8170DB6820219847003018BF01209C
:1047500008BD00BF41C0072072C40720CCC307209A
:104760000A4B02781B789A42094B0BBFDA881A89E8
:10477000013201320CBFDA801A810379C3F3C2021D
:10478000073262F3C5030371FFF7CCBF41C00720B6
:1047900072C40720002210B5064B13F82240910086
:1047A000844201D1581810BD0132042AF5D10020ED
:1047B00010BD00BFEBC4072070B1C3780133DBB27A
:1047C000FF2BC37008D100230448C118CA780433F2
:1047D0005208102BCA70F8D1704700BFEBC40720F5
:1047E0002422034602FB0101024630B591420FD15B
:1047F000044600259A4211D01979C1F3C200198CE0
:1048000041EA0041A94284BF1C460D462433F1E72A
:104810001446243212F8235C002DE7D1204630BD27
:1048200038B50446C90001F10805FFF755FF1C4BD8
:1048300022781B789A4224D102211A48FFF7D0FF30
:104840000023024680F8203080F82130234690F87B
:10485000231080F8225021F07F01C5F306250D4377
:1048600080F8235004F1200153F8044B8B4242F8A6
:10487000044BF9D10C4A0379127862F3C503037132
:1048800038BD04210948FFF7ABFFE378002BD7D1EF
:1048900090F82330042543F0800380F82330CFE7DD
:1048A00041C0072096C4072048C00720E2C3072064
:1048B00008B5FFF76FFF0346D8B9FFF76BFF034654
:1048C000B8B90D4AD378D179D07A8B4296BF1946C0
:1048D000131D1346814294BF0846084BD17B084AFA
:1048E000814238BF1346002206491A60CA7A013253
:1048F000CA72184608BD00BFEBC40720F3C40720E6
:10490000F7C4072072C407202DE9F0474FF02408B0
:1049100005460C46002708FB0218DFF85C91DFF81B
:104920005CA1A04501D1BDE8F08794F92330002BAC
:1049300029DACDB12B786278934209D16878217851
:10494000884205D124220021204609F0F7FC69E0C5
:10495000E97849B16978914206D122789A4203D127
:10496000AA79A3799A42EDD094F8232094F82230C2
:10497000218C02F07F0243EA0223994252DB204657
:10498000FFF7D0FEDEE76378002B4BD0002D32D04E
:104990002A7902F0C002C02A2BD1227869788A4293
:1049A00002D128789842CDD0E678A878864208D1FE
:1049B000994206D129788A4203D1A179AA799142F4
:1049C000C0D0A978E278914215D16A789A4212D182
:1049D00021782A7891420ED1A179AA7991420AD1FF
:1049E000237984F8207067F3C50384F8217023715C
:1049F00018E0002AE5D194F8231094F82220208CA6
:104A000001F07F0142EA012290420BDB227984F817
:104A10002070C2F3C201CEB284F8217026B12046C4
:104A2000FFF79EFE24347CE702F0C002C02A20D0AB
:104A3000207899F8002090421BD1E278934218D058
:104A4000BAB103226379E17062F307136371204600
:104A5000FFF786FE23799AF8002062F3C5032371DD
:104A60006078FFF797FE00B10760002E7FF46AAF11
:104A7000D8E70126F4E700BF41C0072048C007205F
:104A8000431EDBB2FD2B9DBF024B1870012000209E
:104A9000704700BF41C00720014B1878704700BF26
:104AA00041C0072007289CBF014B1870704700BF0A
:104AB00048C007202DE9F743044691461E469DF85D
:104AC00028500F46002965D0344B93F800804145AB
:104AD00060D00F2E5ED800285ED02022002109F081
:104AE0002DFCFF2F08BF4FF00009032223796770C8
:104AF00069F3871362F30203294A84F8008012786D
:104B000084F8028062F3C503264A237113780133C7
:104B1000DBB21370A3710BAB0193C5B9012501235F
:104B2000DFF88480384688F80030FFF733FE074608
:104B3000FFF742FE002388F8003063791FBB66F35D
:104B400007136371E770284603B0BDE8F08304F1F2
:104B50000809019AE0791346526853F8081B00EBE4
:104B600002085FFA88F8013DB8F1180F0193EDB221
:104B700007D8484409F0BDFB84F80780002DE8D130
:104B8000CCE70025CBE7BA7862F3071363717B7833
:104B9000E370D8E70025D6E70546D4E741C00720F3
:104BA00048C00720FBC40720E1C30720012270B5DD
:104BB000134E0446327020B9002500232846337076
:104BC00070BDFFF7AFFD05460028F5D0237903F04F
:104BD000C003402B10D0A3F180014A424A41C02BB0
:104BE0000BD1E3784BB16178994206D061792046C8
:104BF0000909FFF715FEE0E70246002AF6D1DCE7D7
:104C0000E1C3072082B02DE9F0439146421ED2B2A3
:104C10008DB0FD2A05460E4615939DF8688005D98E
:104C200000200DB0BDE8F04302B07047002BF7D074
:104C3000179F002FF4D0199B002BF1D0189B002B4D
:104C4000EED0169B002BEBD00024482200212348F5
:104C500009F074FB90220021214809F06FFB10221B
:104C60000021204809F06AFB1F4B1C605C609C60BF
:104C70001E4B1C605C609C601D4B1D701D4B1E4DCF
:104C80001E7015AE0FCE0FC53368182221461B4883
:104C90002B6009F053FB4946172218480BF015F911
:104CA00021462046B8470028BAD0B8F1000F02D1FB
:104CB000FFF712FDB5E706230293114B224601933D
:104CC0000123FF21009304A8FFF7F4FE0028A7D0DA
:104CD00004A8FFF76BFF0028A2D0E9E796C40720DD
:104CE000E2C30720EBC40720DEC4072072C40720FC
:104CF00041C00720EAC40720CCC307207EC4072098
:104D0000E852020030B5182B8DB007D81D1CB2FA3E
:104D100082F418BF01256409AC4201D100200EE0E5
:104D20000293019200950A469DF84030014604A87E
:104D3000FFF7C0FE0028F1D004A8FFF737FF0DB041
:104D400030BD13B5537914781B09009302460B4606
:104D500020460321FFF7D6FF02B010BD00231946FD
:104D600030B5084A12F823509C002DB1884201D179
:104D7000101930BD0131C9B20133042BF2D100202A
:104D800030BD00BFEBC4072000231846044A12F8C8
:104D9000231009B10130C0B20133042BF7D17047A1
:104DA000EBC407202DE9F04788B020220021684697
:104DB00009F0C4FAA34B1B7803F0FF042BBBA24FEE
:104DC00020213B696846984708B9002411E09F4DAF
:104DD0006B8801336B80FFF7D7FF9DF80420A87222
:104DE00002F00703032B13D0994A137843F0010311
:104DF0001370FFF771FC042296492046FFF784FDEB
:104E0000022295492046FFF77FFD08B0BDE8F087F4
:104E1000924B9DF802E01E78B64504D18C4A137877
:104E200043F00203E4E78E4D2146A846C2F3C202D6
:104E30009DF800009DF806C05FFA82F901EB41037E
:104E400013F805A0824523D12B4493F801A0E24535
:104E50001ED19D789A70B5EB090518BF01254FF05A
:104E600001099DF80200FFF723FD9DF80220027062
:104E7000427000228270FFF79FFCB9F1000F01D051
:104E8000002DA2D09DF80030B34233D16C46B0E77C
:104E900001310429D2D173490B689A70724A187093
:104EA000934283F801C006D1C1F80080864505D140
:104EB0000025A946D5E703330B60F7E78642F7D014
:104EC000FFF7F6FC0546FFF777FC2B7833B19DF82A
:104ED0000530AA7803F00F039342E9DC9DF8003017
:104EE0002B709DF802306B709DF80530C3F30303FF
:104EF000AB70DDE79DF80180B8F1FF0F1BD13B6877
:104F000020216846984720B9514A137843F004039A
:104F100013709DF8053003F00F02511C61F3030379
:104F20008DF80530C3F303139A42BFF64EAF6846BF
:104F3000FFF7F8FB49E746452ED1B9F1000F0CD138
:104F40009DF807304BB13B6820216846984720B94F
:104F50003F4A137843F0040313709DF8043003F0C4
:104F6000C003402B12D19DF807306A4623B918219F
:104F70003E48FFF7E6FE89E70C213448FFF7E1FEE3
:104F8000002883D100216A460846F2E79DF80330E5
:104F9000002B7FF47BAFF5E7354B1F78002F3FF4F4
:104FA00014AF9DF8055005F00F094FEA151AD145C9
:104FB000BFF60BAF4046FFF7EDFB9DF8033009F15C
:104FC000010969F303059E428DF8055024D19DF82F
:104FD000043003F0C003402B03D0A3F180025742FA
:104FE000574150B3C02B447820D1A04512D0003493
:104FF00018BF01243C4304F00104D0B143788DF87C
:10500000033085786846FFF78DFB002C3FF43EAFF8
:10501000294607E00024EDE7002B7FF437AF002896
:10502000ECD151466846FFF7FBFB2FE73C46E5E72E
:105030003C4600258DF80350E4E7C02BF8D1044628
:10504000D8E700BFE1C30720CCC3072072C4072004
:10505000E0C30720E2C3072096C4072041C0072011
:10506000DEC4072044C00720E7C407207EC4072011
:10507000EAC4072000231846094AD118497809B123
:105080000130C0B22433902BF7D1064B5A780AB1C5
:105090000130C0B293F825300BB10130C0B2704777
:1050A000E2C3072096C4072008B5FFF773FB064B41
:1050B00028B18278187802FB0000C00008BD1820D3
:1050C0001B78584308BD00BF48C0072003490B6840
:1050D00003604B6843608B688360704772C407202D
:1050E00070B5174E326822B92021032001F0D2FB9F
:1050F0003060144D2A6822B92021012001F0CAFB3A
:105100002860114C216821B90322012001F0C2FB63
:1051100020604FF4FA6240F6C311202000F014FB27
:1051200000F0F0F91620094A0121FBF773FE306800
:1051300028B1286818B12068003018BF012070BD60
:1051400008C5072000C5072004C50720F951010044
:10515000037970B503F0C003C02B0CBF0E4B0F4B8F
:1051600001461D68002388B006461A46284601F00D
:10517000B3FB044660B9034602466946284601F07F
:10518000B3FC234622463146284601F0A5FB0446DF
:10519000204608B070BD00BF00C5072008C5072025
:1051A00038B504460D46FFF777FC237883420AD0D2
:1051B000E37843B90AF012FBBD2300F0030000FBC3
:1051C000033003F00BFD00F095F900F087F9A9B268
:1051D000204600F0B3F900F0A7F900F093F901F0D0
:1051E0004BF9022804D1034B0021186801F048FC58
:1051F000012038BD04C50720002307B502A941F8E6
:10520000043D084B186801F03BFC019B3BB14FF09B
:105210008052054B1A60BFF34F8FBFF36F8F03B0FF
:105220005DF804FB04C5072004ED00E038B5044632
:105230000D4600F0A9F948B1A9B2204600F0B0F936
:1052400000F0A2F908B900F0A7F9012038BD2DE956
:10525000704305460E46144601F00EF9022809D1A6
:10526000224600233146284601F03EFCC4B22046C7
:10527000BDE8708301F048FD4FF47A72002308F016
:10528000E3F810EB040841F10009002331461A4607
:10529000284601F029FCC4B2002CE8D101F034FD0D
:1052A0004FF47A72002308F0CFF8894508BF804593
:1052B000EBD2DCE7042938B505460DD1041C18BF34
:1052C000012401F021FD2CB14FF47A72002308F083
:1052D000BBF82860204638BD0024F2E700B50C4B2F
:1052E0008DB009930B4B0C4A0B930C4B0A930CABF0
:1052F00043F8102D002204920FCB8DE80F00084BCD
:10530000084A01216A20FFF77DFC0DB05DF804FB1F
:10531000E15001002D520100B5520100A1510100E0
:1053200051510100EF520200024B0A460146186833
:10533000FFF78DBF08C50720024B0A4601461868D3
:10534000FFF785BF00C5072008B501F095F80F4BA2
:1053500002285B6912D15A020CD5FFF78BFE00239D
:1053600000280B4814BF01224FF0FF321946006895
:1053700001F0BAFBBDE80840FFF714BD5B02F9D5A8
:10538000FFF778FE0028F5D108BD00BF00C0092056
:1053900004C5072030B54FF48035364CE561364CF6
:1053A000A0602046C468E406FCD48068C0B263B93B
:1053B0000B46314C5D1A954209DA13F8015BA56082
:1053C000E568ED06FCD4A568F4E72B4B22B94FF451
:1053D0008032284B9A6130BD072A0C7829DD9C6009
:1053E0004C78083A9C608C789C60CC789C600C79F6
:1053F0009C604C799C608C799C60CD7901F10804AB
:105400009D609D696D07FCD59D680D709D684D7010
:105410009D688D709D68CD70DD68ED06FCD49D683B
:105420000D719D684D719D688D719D68CD7121468E
:10543000CCE7032A14DD9C604C78043A9C608C789D
:105440009C60CD780C1D9D60DD68ED06FCD49D68E8
:105450000D709D684D709D688D709D68CD70E6E7FC
:105460004D1C9C60013ADC68E406FCD49C680C701E
:105470002946ABE700C0092000800840002307B59B
:1054800002A901F8013D012300F01F001A46FFF7B1
:1054900081FF9DF8070003B05DF804FB13B502AC73
:1054A00004F8011D00F01F0000230122214640F0F6
:1054B0002000FFF76FFF02B010BD08B51720FFF7FF
:1054C000DDFFC0F3001008BD70210720FFF7E6BF25
:1054D0000A4600230146A020FFF75CBF08B5002064
:1054E000FFF7CCFFBDE8084000F0FE010020FFF709
:1054F000D5BFFFFF4FF08072014BDA61704700BFEC
:1055000020C0092008B50020FFF7B8FF40F00101D6
:10551000C9B20020FFF7C2FF4FF08072014B9A61C1
:1055200008BD00BF20C0092020210720FFF7B6BF1B
:105530000023E1201A461946FFF72CBF37B5044671
:105540000D46FFF7F5FF20462946FFF7C1FF4FF054
:1055500080720C4CA2610022ADF80620BDF8063026
:1055600001339BB2ADF8063033B94FF08073E3617D
:10557000FFF7DEFF03B030BDFFF79FFF0028EDD03F
:10558000F3E700BF20C0092008B51720FFF776FF1A
:10559000C04300F0010008BD40210720FFF77EBF97
:1055A00008B50A46012301466120FFF7F3FEC0F368
:1055B000420008BD0023E2201A461946FFF7EABE62
:1055C00070B5064600200D461446FFF757FF66B13A
:1055D00000F0BF006DB100F0DF016CB101F0EF0130
:1055E0000020BDE87040FFF759BF40F04000C0B256
:1055F000F0E740F02001F0E741F01001F0E710B5CE
:1056000004460020FFF73AFF34B900F0F70100200C
:10561000BDE81040FFF742BF012C04D100F0FB01B0
:1056200041F00801F3E7022C14BF40F0080140F0FC
:105630000C01C9B2EBE708B50020FFF71FFFBDE87A
:10564000084040F00201C9B20020FFF727BF08B5AB
:105650000020FFF713FFBDE8084000F0FD01002027
:10566000FFF71CBF40F6DD1398420BD840F66213DB
:10567000B0F5166F38BF1846A0F51661C9B20520FF
:10568000FFF70CBF1846F7E710B504460620FFF7F2
:10569000F5FEFA2C00F0D70106D141F020010620DA
:1056A000BDE81040FFF7FABEB4F5FA6F08BF41F04D
:1056B0000801F4E710B504460620FFF7DFFE032CCF
:1056C00028BF032420F0060141EA4401C9B20620A4
:1056D000BDE81040FFF7E2BEB0F57A6F28BF4FF487
:1056E0007A60FA2838BFFA20FA23B0FBF3F30F29C7
:1056F00028BF0F21013BDBB241EA0311C9B20420EC
:10570000FFF7CCBE1130C0B2162804D8202928BF1C
:105710002021FFF7C3BE7047032806D0042814BF1A
:10572000032102210320FFF7B9BE0121FAE70A464F
:10573000002301463020FFF72DBE0A460023014614
:105740002A20FFF727BEFFFF73B504460E46154615
:10575000FFF730FFFFF7ECFE4FF080722A4BDA6163
:10576000FFF775FF002201201146FFF729FFFFF721
:10577000ABFE0220FFF743FF3046FFF773FF2846DA
:10578000FFF782FF0320FFF795FF03210220FFF7B9
:1057900085FE00210120FFF781FE03214FF4FA70FE
:1057A000FFF79AFF21460020FFF7ACFF00211220EF
:1057B000FFF774FE00211320FFF770FE0021142074
:1057C000FFF76CFE00211520FFF768FE0021162070
:1057D000FFF764FE0D4B18681B79009005208DF8CB
:1057E0000430FFF799FF68460521FFF7A0FF052168
:1057F0006846FFF7A2FFFFF71EFF4FF4FA6003F0C1
:10580000EDF902B070BD00BF20C00920F4520200C3
:105810004FF0100383F31188BFF36F8FBFF34F8FE7
:10582000FEE7FFFF06480068006880F3088862B65C
:1058300061B6BFF34F8FBFF36F8F00DF00BF000073
:1058400008ED00E04FF0807340F8043C054B21F078
:10585000010140F8081C40F80C3C40F8202C40386E
:10586000704700BF11580100FFFFFFFFFFFFFFFF60
:10587000074B19680868B0E8F00F80F30988BFF398
:105880006F8F4FF0000080F311884EF00D0E7047BF
:1058900018C507207047FFFF4FF0100383F31188EE
:1058A000BFF36F8FBFF34F8F024A1368013313604A
:1058B000704700BF0CC50720034A1368013B136003
:1058C0000BB983F3118870470CC50720FFFFFFFF5A
:1058D000EFF30980BFF36F8F0D4B1A6820E9F00FCB
:1058E00010602DE908404FF0100080F3118800F09F
:1058F000C5FB4FF0000080F31188BDE8084019682F
:105900000868B0E8F00F80F30988BFF36F8F704725
:1059100018C5072008B54FF0100383F31188BFF3B3
:105920006F8FBFF34F8F00F073FA18B14FF08052B2
:10593000024B1A60002383F3118808BD04ED00E0D8
:105940004BF67F32024B1A60072243F8042C704753
:1059500014E000E008B5094B1A6842F478021A60B6
:105960001A6842F078421A60FFF7EAFF0022044BFF
:105970001A60FFF757FFFFF74BFF00BF20ED00E075
:105980000CC5072008B501F0BFF9024BC3E90001BF
:1059900008BD00BF10C5072008B501F0B5F9024BDE
:1059A0001B68C01A08BD00BF10C5072008B501F06C
:1059B000ABF9024BC3E9000108BD00BF10C50720C9
:1059C00030BF704710B50C46094803F0B0FD2046C3
:1059D00003F0ADFD074803F0AAFD074803F0FEF809
:1059E0004FF08043AA221A7200221A7010BD00BF25
:1059F0002F53020058530200C0C62D0008B50648B8
:105A000003F095FD054803F0E9F84FF08043AA2222
:105A10001A7200221A7008BDF9520200C0C62D0089
:105A200010B5044600F0DAF9204608F023FC0446DD
:105A300000F074FA0CB9FFF7E1FF204610BD10B575
:105A4000044640B100F0CAF9204608F01BFCBDE84E
:105A5000104000F063BA10BD30B50025436800F176
:105A600008015B688B42436004BFC36843604368BE
:105A7000DC685B68994208BFC368DA689442D56401
:105A8000F7D1436030BDFFFF4FF0805608B5064C9C
:105A9000064D2368012B04D92E60BFF34F8FBFF34F
:105AA0006F8FFFF78DFFF4E724C5072004ED00E0BA
:105AB000064A13681968064B19B94FF0FF321A608D
:105AC00070471268D268D2685268F8E71CC5072090
:105AD00030C60720F8B51B4B1B4E1D6804463068C6
